{
  "_format": "hh-sol-artifact-1",
  "contractName": "Frontend",
  "sourceName": "contracts/Frontend.sol",
  "abi": [
    {
      "inputs": [
        {
          "internalType": "uint256",
          "name": "initialValue",
          "type": "uint256"
        }
      ],
      "stateMutability": "nonpayable",
      "type": "constructor"
    },
    {
      "anonymous": false,
      "inputs": [
        {
          "indexed": true,
          "internalType": "address",
          "name": "from",
          "type": "address"
        },
        {
          "indexed": true,
          "internalType": "address",
          "name": "to",
          "type": "address"
        },
        {
          "indexed": false,
          "internalType": "uint256",
          "name": "amount",
          "type": "uint256"
        }
      ],
      "name": "AccessTransaction",
      "type": "event"
    },
    {
      "anonymous": false,
      "inputs": [
        {
          "indexed": true,
          "internalType": "address",
          "name": "addr",
          "type": "address"
        },
        {
          "indexed": false,
          "internalType": "bool",
          "name": "isValid",
          "type": "bool"
        }
      ],
      "name": "AddressVerified",
      "type": "event"
    },
    {
      "anonymous": false,
      "inputs": [
        {
          "indexed": false,
          "internalType": "uint256",
          "name": "cashOutValue",
          "type": "uint256"
        },
        {
          "indexed": false,
          "internalType": "uint256",
          "name": "newBalance",
          "type": "uint256"
        }
      ],
      "name": "CashOut",
      "type": "event"
    },
    {
      "anonymous": false,
      "inputs": [
        {
          "indexed": false,
          "internalType": "address",
          "name": "walletAddress",
          "type": "address"
        }
      ],
      "name": "ShowAddress",
      "type": "event"
    },
    {
      "anonymous": false,
      "inputs": [
        {
          "indexed": false,
          "internalType": "uint256",
          "name": "topUpValue",
          "type": "uint256"
        },
        {
          "indexed": false,
          "internalType": "uint256",
          "name": "newBalance",
          "type": "uint256"
        }
      ],
      "name": "TopUp",
      "type": "event"
    },
    {
      "inputs": [
        {
          "internalType": "address",
          "name": "recipient",
          "type": "address"
        },
        {
          "internalType": "uint256",
          "name": "amount",
          "type": "uint256"
        }
      ],
      "name": "accessTransaction",
      "outputs": [],
      "stateMutability": "nonpayable",
      "type": "function"
    },
    {
      "inputs": [],
      "name": "balance",
      "outputs": [
        {
          "internalType": "uint256",
          "name": "",
          "type": "uint256"
        }
      ],
      "stateMutability": "view",
      "type": "function"
    },
    {
      "inputs": [
        {
          "internalType": "uint256",
          "name": "cashOutValue",
          "type": "uint256"
        }
      ],
      "name": "cashOut",
      "outputs": [],
      "stateMutability": "nonpayable",
      "type": "function"
    },
    {
      "inputs": [],
      "name": "displayAddress",
      "outputs": [],
      "stateMutability": "nonpayable",
      "type": "function"
    },
    {
      "inputs": [],
      "name": "getBalance",
      "outputs": [
        {
          "internalType": "uint256",
          "name": "",
          "type": "uint256"
        }
      ],
      "stateMutability": "view",
      "type": "function"
    },
    {
      "inputs": [
        {
          "internalType": "uint256",
          "name": "topUpValue",
          "type": "uint256"
        }
      ],
      "name": "topUp",
      "outputs": [],
      "stateMutability": "payable",
      "type": "function"
    },
    {
      "inputs": [
        {
          "internalType": "address",
          "name": "addrToVerify",
          "type": "address"
        }
      ],
      "name": "verifyAddress",
      "outputs": [
        {
          "internalType": "bool",
          "name": "",
          "type": "bool"
        }
      ],
      "stateMutability": "pure",
      "type": "function"
    },
    {
      "inputs": [],
      "name": "walletAddress",
      "outputs": [
        {
          "internalType": "address payable",
          "name": "",
          "type": "address"
        }
      ],
      "stateMutability": "view",
      "type": "function"
    }
  ],
  "bytecode": "0x608060405234801561001057600080fd5b50604051610c9f380380610c9f833981810160405281019061003291906100ba565b80600181905550336000806101000a81548173ffffffffffffffffffffffffffffffffffffffff021916908373ffffffffffffffffffffffffffffffffffffffff160217905550506100e7565b600080fd5b6000819050919050565b61009781610084565b81146100a257600080fd5b50565b6000815190506100b48161008e565b92915050565b6000602082840312156100d0576100cf61007f565b5b60006100de848285016100a5565b91505092915050565b610ba9806100f66000396000f3fe60806040526004361061007b5760003560e01c80635c7b79f51161004e5780635c7b79f5146101075780636ad5b3ea14610130578063b69ef8a81461015b578063fcb2cafc146101865761007b565b806312065fe01461008057806319363915146100ab5780634bc848e8146100d457806350017f3e146100eb575b600080fd5b34801561008c57600080fd5b506100956101c3565b6040516100a291906105e4565b60405180910390f35b3480156100b757600080fd5b506100d260048036038101906100cd919061068e565b6101cd565b005b3480156100e057600080fd5b506100e96103d9565b005b610105600480360381019061010091906106ce565b610432565b005b34801561011357600080fd5b5061012e600480360381019061012991906106ce565b6104cc565b005b34801561013c57600080fd5b50610145610568565b604051610152919061071c565b60405180910390f35b34801561016757600080fd5b5061017061058c565b60405161017d91906105e4565b60405180910390f35b34801561019257600080fd5b506101ad60048036038101906101a89190610737565b610592565b6040516101ba919061077f565b60405180910390f35b6000600154905090565b600073ffffffffffffffffffffffffffffffffffffffff168273ffffffffffffffffffffffffffffffffffffffff160361023c576040517f08c379a0000000000000000000000000000000000000000000000000000000008152600401610233906107f7565b60405180910390fd5b6000811161027f576040517f08c379a000000000000000000000000000000000000000000000000000000000815260040161027690610889565b60405180910390fd5b8060015410156102c4576040517f08c379a00000000000000000000000000000000000000000000000000000000081526004016102bb9061091b565b60405180910390fd5b80600260003373ffffffffffffffffffffffffffffffffffffffff1673ffffffffffffffffffffffffffffffffffffffff1681526020019081526020016000206000828254610313919061096a565b9250508190555080600260008473ffffffffffffffffffffffffffffffffffffffff1673ffffffffffffffffffffffffffffffffffffffff1681526020019081526020016000206000828254610369919061099e565b925050819055508173ffffffffffffffffffffffffffffffffffffffff163373ffffffffffffffffffffffffffffffffffffffff167f1f709b9cc4acc46f15d23cde559f244317d408b0a9af3963e9a5a1aae9ea3555836040516103cd91906105e4565b60405180910390a35050565b7f36de1704729aec1eaa0800270d30d2c2b049c9e37a91e426cdcc9ed76bb9c70f60008054906101000a900473ffffffffffffffffffffffffffffffffffffffff166040516104289190610a31565b60405180910390a1565b60008111610475576040517f08c379a000000000000000000000000000000000000000000000000000000000815260040161046c90610abe565b60405180910390fd5b8060016000828254610487919061099e565b925050819055507f9580ef1bd2c88526f7c878185e323d2bef5d3f0f9471577f3e3a2bfdb87763ef816001546040516104c1929190610ade565b60405180910390a150565b806001541015610511576040517f08c379a000000000000000000000000000000000000000000000000000000000815260040161050890610b53565b60405180910390fd5b8060016000828254610523919061096a565b925050819055507fa1fa8c9075ff27256cecb5d717b4a6d4955bb35d549c54b5824a02a008b251bf8160015460405161055d929190610ade565b60405180910390a150565b60008054906101000a900473ffffffffffffffffffffffffffffffffffffffff1681565b60015481565b60008073ffffffffffffffffffffffffffffffffffffffff168273ffffffffffffffffffffffffffffffffffffffff1614159050919050565b6000819050919050565b6105de816105cb565b82525050565b60006020820190506105f960008301846105d5565b92915050565b600080fd5b600073ffffffffffffffffffffffffffffffffffffffff82169050919050565b600061062f82610604565b9050919050565b61063f81610624565b811461064a57600080fd5b50565b60008135905061065c81610636565b92915050565b61066b816105cb565b811461067657600080fd5b50565b60008135905061068881610662565b92915050565b600080604083850312156106a5576106a46105ff565b5b60006106b38582860161064d565b92505060206106c485828601610679565b9150509250929050565b6000602082840312156106e4576106e36105ff565b5b60006106f284828501610679565b91505092915050565b600061070682610604565b9050919050565b610716816106fb565b82525050565b6000602082019050610731600083018461070d565b92915050565b60006020828403121561074d5761074c6105ff565b5b600061075b8482850161064d565b91505092915050565b60008115159050919050565b61077981610764565b82525050565b60006020820190506107946000830184610770565b92915050565b600082825260208201905092915050565b7f526563697069656e7420616464726573732063616e6e6f74206265207a65726f600082015250565b60006107e160208361079a565b91506107ec826107ab565b602082019050919050565b60006020820190508181036000830152610810816107d4565b9050919050565b7f5472616e73616374696f6e20616d6f756e74206d75737420626520677265617460008201527f6572207468616e20300000000000000000000000000000000000000000000000602082015250565b600061087360298361079a565b915061087e82610817565b604082019050919050565b600060208201905081810360008301526108a281610866565b9050919050565b7f496e73756666696369656e742062616c616e636520666f72207468652074726160008201527f6e73616374696f6e000000000000000000000000000000000000000000000000602082015250565b600061090560288361079a565b9150610910826108a9565b604082019050919050565b60006020820190508181036000830152610934816108f8565b9050919050565b7f4e487b7100000000000000000000000000000000000000000000000000000000600052601160045260246000fd5b6000610975826105cb565b9150610980836105cb565b92508282039050818111156109985761099761093b565b5b92915050565b60006109a9826105cb565b91506109b4836105cb565b92508282019050808211156109cc576109cb61093b565b5b92915050565b6000819050919050565b60006109f76109f26109ed84610604565b6109d2565b610604565b9050919050565b6000610a09826109dc565b9050919050565b6000610a1b826109fe565b9050919050565b610a2b81610a10565b82525050565b6000602082019050610a466000830184610a22565b92915050565b7f546f702d75702076616c7565206d75737420626520677265617465722074686160008201527f6e20300000000000000000000000000000000000000000000000000000000000602082015250565b6000610aa860238361079a565b9150610ab382610a4c565b604082019050919050565b60006020820190508181036000830152610ad781610a9b565b9050919050565b6000604082019050610af360008301856105d5565b610b0060208301846105d5565b9392505050565b7f496e73756666696369656e742062616c616e6365000000000000000000000000600082015250565b6000610b3d60148361079a565b9150610b4882610b07565b602082019050919050565b60006020820190508181036000830152610b6c81610b30565b905091905056fea26469706673582212204f2fa96ff1ab467e02e8349f9d8ba76c095a6b683ff1d7c2073968aadcb2a50464736f6c63430008110033",
  "linkReferences": {},
  "deployedLinkReferences": {}
}