{
	"contracts/Frontend.sol": {
		"Frontend": {
			"abi": [
				{
					"inputs": [
						{
							"internalType": "uint256",
							"name": "initialValue",
							"type": "uint256"
						}
					],
					"stateMutability": "nonpayable",
					"type": "constructor"
				},
				{
					"anonymous": false,
					"inputs": [
						{
							"indexed": true,
							"internalType": "address",
							"name": "from",
							"type": "address"
						},
						{
							"indexed": true,
							"internalType": "address",
							"name": "to",
							"type": "address"
						},
						{
							"indexed": false,
							"internalType": "uint256",
							"name": "amount",
							"type": "uint256"
						}
					],
					"name": "AccessTransaction",
					"type": "event"
				},
				{
					"anonymous": false,
					"inputs": [
						{
							"indexed": true,
							"internalType": "address",
							"name": "addr",
							"type": "address"
						},
						{
							"indexed": false,
							"internalType": "bool",
							"name": "isValid",
							"type": "bool"
						}
					],
					"name": "AddressVerified",
					"type": "event"
				},
				{
					"anonymous": false,
					"inputs": [
						{
							"indexed": false,
							"internalType": "uint256",
							"name": "cashOutValue",
							"type": "uint256"
						},
						{
							"indexed": false,
							"internalType": "uint256",
							"name": "newBalance",
							"type": "uint256"
						}
					],
					"name": "CashOut",
					"type": "event"
				},
				{
					"anonymous": false,
					"inputs": [
						{
							"indexed": false,
							"internalType": "address",
							"name": "walletAddress",
							"type": "address"
						}
					],
					"name": "ShowAddress",
					"type": "event"
				},
				{
					"anonymous": false,
					"inputs": [
						{
							"indexed": false,
							"internalType": "uint256",
							"name": "topUpValue",
							"type": "uint256"
						},
						{
							"indexed": false,
							"internalType": "uint256",
							"name": "newBalance",
							"type": "uint256"
						}
					],
					"name": "TopUp",
					"type": "event"
				},
				{
					"inputs": [
						{
							"internalType": "address",
							"name": "recipient",
							"type": "address"
						},
						{
							"internalType": "uint256",
							"name": "amount",
							"type": "uint256"
						}
					],
					"name": "accessTransaction",
					"outputs": [],
					"stateMutability": "nonpayable",
					"type": "function"
				},
				{
					"inputs": [],
					"name": "balance",
					"outputs": [
						{
							"internalType": "uint256",
							"name": "",
							"type": "uint256"
						}
					],
					"stateMutability": "view",
					"type": "function"
				},
				{
					"inputs": [
						{
							"internalType": "uint256",
							"name": "cashOutValue",
							"type": "uint256"
						}
					],
					"name": "cashOut",
					"outputs": [],
					"stateMutability": "nonpayable",
					"type": "function"
				},
				{
					"inputs": [],
					"name": "displayAddress",
					"outputs": [],
					"stateMutability": "nonpayable",
					"type": "function"
				},
				{
					"inputs": [],
					"name": "getBalance",
					"outputs": [
						{
							"internalType": "uint256",
							"name": "",
							"type": "uint256"
						}
					],
					"stateMutability": "view",
					"type": "function"
				},
				{
					"inputs": [
						{
							"internalType": "uint256",
							"name": "topUpValue",
							"type": "uint256"
						}
					],
					"name": "topUp",
					"outputs": [],
					"stateMutability": "payable",
					"type": "function"
				},
				{
					"inputs": [
						{
							"internalType": "address",
							"name": "addrToVerify",
							"type": "address"
						}
					],
					"name": "verifyAddress",
					"outputs": [
						{
							"internalType": "bool",
							"name": "",
							"type": "bool"
						}
					],
					"stateMutability": "pure",
					"type": "function"
				},
				{
					"inputs": [],
					"name": "walletAddress",
					"outputs": [
						{
							"internalType": "address payable",
							"name": "",
							"type": "address"
						}
					],
					"stateMutability": "view",
					"type": "function"
				}
			],
			"devdoc": {
				"kind": "dev",
				"methods": {},
				"version": 1
			},
			"evm": {
				"assembly": "    /* \"contracts/Frontend.sol\":67:1972  contract Frontend {... */\n  mstore(0x40, 0x80)\n    /* \"contracts/Frontend.sol\":489:610  constructor(uint256 initialValue) {... */\n  callvalue\n  dup1\n  iszero\n  tag_1\n  jumpi\n  0x00\n  dup1\n  revert\ntag_1:\n  pop\n  mload(0x40)\n  sub(codesize, bytecodeSize)\n  dup1\n  bytecodeSize\n  dup4\n  codecopy\n  dup2\n  dup2\n  add\n  0x40\n  mstore\n  dup2\n  add\n  swap1\n  tag_2\n  swap2\n  swap1\n  tag_3\n  jump\t// in\ntag_2:\n    /* \"contracts/Frontend.sol\":544:556  initialValue */\n  dup1\n    /* \"contracts/Frontend.sol\":534:541  balance */\n  0x01\n    /* \"contracts/Frontend.sol\":534:556  balance = initialValue */\n  dup2\n  swap1\n  sstore\n  pop\n    /* \"contracts/Frontend.sol\":591:601  msg.sender */\n  caller\n    /* \"contracts/Frontend.sol\":567:580  walletAddress */\n  0x00\n  dup1\n    /* \"contracts/Frontend.sol\":567:602  walletAddress = payable(msg.sender) */\n  0x0100\n  exp\n  dup2\n  sload\n  dup2\n  0xffffffffffffffffffffffffffffffffffffffff\n  mul\n  not\n  and\n  swap1\n  dup4\n  0xffffffffffffffffffffffffffffffffffffffff\n  and\n  mul\n  or\n  swap1\n  sstore\n  pop\n    /* \"contracts/Frontend.sol\":489:610  constructor(uint256 initialValue) {... */\n  pop\n    /* \"contracts/Frontend.sol\":67:1972  contract Frontend {... */\n  jump(tag_6)\n    /* \"#utility.yul\":88:205   */\ntag_8:\n    /* \"#utility.yul\":197:198   */\n  0x00\n    /* \"#utility.yul\":194:195   */\n  dup1\n    /* \"#utility.yul\":187:199   */\n  revert\n    /* \"#utility.yul\":334:411   */\ntag_10:\n    /* \"#utility.yul\":371:378   */\n  0x00\n    /* \"#utility.yul\":400:405   */\n  dup2\n    /* \"#utility.yul\":389:405   */\n  swap1\n  pop\n    /* \"#utility.yul\":334:411   */\n  swap2\n  swap1\n  pop\n  jump\t// out\n    /* \"#utility.yul\":417:539   */\ntag_11:\n    /* \"#utility.yul\":490:514   */\n  tag_19\n    /* \"#utility.yul\":508:513   */\n  dup2\n    /* \"#utility.yul\":490:514   */\n  tag_10\n  jump\t// in\ntag_19:\n    /* \"#utility.yul\":483:488   */\n  dup2\n    /* \"#utility.yul\":480:515   */\n  eq\n    /* \"#utility.yul\":470:533   */\n  tag_20\n  jumpi\n    /* \"#utility.yul\":529:530   */\n  0x00\n    /* \"#utility.yul\":526:527   */\n  dup1\n    /* \"#utility.yul\":519:531   */\n  revert\n    /* \"#utility.yul\":470:533   */\ntag_20:\n    /* \"#utility.yul\":417:539   */\n  pop\n  jump\t// out\n    /* \"#utility.yul\":545:688   */\ntag_12:\n    /* \"#utility.yul\":602:607   */\n  0x00\n    /* \"#utility.yul\":633:639   */\n  dup2\n    /* \"#utility.yul\":627:640   */\n  mload\n    /* \"#utility.yul\":618:640   */\n  swap1\n  pop\n    /* \"#utility.yul\":649:682   */\n  tag_22\n    /* \"#utility.yul\":676:681   */\n  dup2\n    /* \"#utility.yul\":649:682   */\n  tag_11\n  jump\t// in\ntag_22:\n    /* \"#utility.yul\":545:688   */\n  swap3\n  swap2\n  pop\n  pop\n  jump\t// out\n    /* \"#utility.yul\":694:1045   */\ntag_3:\n    /* \"#utility.yul\":764:770   */\n  0x00\n    /* \"#utility.yul\":813:815   */\n  0x20\n    /* \"#utility.yul\":801:810   */\n  dup3\n    /* \"#utility.yul\":792:799   */\n  dup5\n    /* \"#utility.yul\":788:811   */\n  sub\n    /* \"#utility.yul\":784:816   */\n  slt\n    /* \"#utility.yul\":781:900   */\n  iszero\n  tag_24\n  jumpi\n    /* \"#utility.yul\":819:898   */\n  tag_25\n  tag_8\n  jump\t// in\ntag_25:\n    /* \"#utility.yul\":781:900   */\ntag_24:\n    /* \"#utility.yul\":939:940   */\n  0x00\n    /* \"#utility.yul\":964:1028   */\n  tag_26\n    /* \"#utility.yul\":1020:1027   */\n  dup5\n    /* \"#utility.yul\":1011:1017   */\n  dup3\n    /* \"#utility.yul\":1000:1009   */\n  dup6\n    /* \"#utility.yul\":996:1018   */\n  add\n    /* \"#utility.yul\":964:1028   */\n  tag_12\n  jump\t// in\ntag_26:\n    /* \"#utility.yul\":954:1028   */\n  swap2\n  pop\n    /* \"#utility.yul\":910:1038   */\n  pop\n    /* \"#utility.yul\":694:1045   */\n  swap3\n  swap2\n  pop\n  pop\n  jump\t// out\n    /* \"contracts/Frontend.sol\":67:1972  contract Frontend {... */\ntag_6:\n  dataSize(sub_0)\n  dup1\n  dataOffset(sub_0)\n  0x00\n  codecopy\n  0x00\n  return\nstop\n\nsub_0: assembly {\n        /* \"contracts/Frontend.sol\":67:1972  contract Frontend {... */\n      mstore(0x40, 0x80)\n      jumpi(tag_1, lt(calldatasize, 0x04))\n      shr(0xe0, calldataload(0x00))\n      dup1\n      0x5c7b79f5\n      gt\n      tag_10\n      jumpi\n      dup1\n      0x5c7b79f5\n      eq\n      tag_6\n      jumpi\n      dup1\n      0x6ad5b3ea\n      eq\n      tag_7\n      jumpi\n      dup1\n      0xb69ef8a8\n      eq\n      tag_8\n      jumpi\n      dup1\n      0xfcb2cafc\n      eq\n      tag_9\n      jumpi\n      jump(tag_1)\n    tag_10:\n      dup1\n      0x12065fe0\n      eq\n      tag_2\n      jumpi\n      dup1\n      0x19363915\n      eq\n      tag_3\n      jumpi\n      dup1\n      0x4bc848e8\n      eq\n      tag_4\n      jumpi\n      dup1\n      0x50017f3e\n      eq\n      tag_5\n      jumpi\n    tag_1:\n      0x00\n      dup1\n      revert\n        /* \"contracts/Frontend.sol\":734:819  function getBalance() public view returns (uint256) {... */\n    tag_2:\n      callvalue\n      dup1\n      iszero\n      tag_11\n      jumpi\n      0x00\n      dup1\n      revert\n    tag_11:\n      pop\n      tag_12\n      tag_13\n      jump\t// in\n    tag_12:\n      mload(0x40)\n      tag_14\n      swap2\n      swap1\n      tag_15\n      jump\t// in\n    tag_14:\n      mload(0x40)\n      dup1\n      swap2\n      sub\n      swap1\n      return\n        /* \"contracts/Frontend.sol\":1502:1969  function accessTransaction(address recipient, uint256 amount) public {... */\n    tag_3:\n      callvalue\n      dup1\n      iszero\n      tag_16\n      jumpi\n      0x00\n      dup1\n      revert\n    tag_16:\n      pop\n      tag_17\n      0x04\n      dup1\n      calldatasize\n      sub\n      dup2\n      add\n      swap1\n      tag_18\n      swap2\n      swap1\n      tag_19\n      jump\t// in\n    tag_18:\n      tag_20\n      jump\t// in\n    tag_17:\n      stop\n        /* \"contracts/Frontend.sol\":827:910  function displayAddress() public {... */\n    tag_4:\n      callvalue\n      dup1\n      iszero\n      tag_21\n      jumpi\n      0x00\n      dup1\n      revert\n    tag_21:\n      pop\n      tag_22\n      tag_23\n      jump\t// in\n    tag_22:\n      stop\n        /* \"contracts/Frontend.sol\":918:1123  function topUp(uint256 topUpValue) public payable {... */\n    tag_5:\n      tag_24\n      0x04\n      dup1\n      calldatasize\n      sub\n      dup2\n      add\n      swap1\n      tag_25\n      swap2\n      swap1\n      tag_26\n      jump\t// in\n    tag_25:\n      tag_27\n      jump\t// in\n    tag_24:\n      stop\n        /* \"contracts/Frontend.sol\":1131:1332  function cashOut(uint256 cashOutValue) public {... */\n    tag_6:\n      callvalue\n      dup1\n      iszero\n      tag_28\n      jumpi\n      0x00\n      dup1\n      revert\n    tag_28:\n      pop\n      tag_29\n      0x04\n      dup1\n      calldatasize\n      sub\n      dup2\n      add\n      swap1\n      tag_30\n      swap2\n      swap1\n      tag_26\n      jump\t// in\n    tag_30:\n      tag_31\n      jump\t// in\n    tag_29:\n      stop\n        /* \"contracts/Frontend.sol\":94:130  address payable public walletAddress */\n    tag_7:\n      callvalue\n      dup1\n      iszero\n      tag_32\n      jumpi\n      0x00\n      dup1\n      revert\n    tag_32:\n      pop\n      tag_33\n      tag_34\n      jump\t// in\n    tag_33:\n      mload(0x40)\n      tag_35\n      swap2\n      swap1\n      tag_36\n      jump\t// in\n    tag_35:\n      mload(0x40)\n      dup1\n      swap2\n      sub\n      swap1\n      return\n        /* \"contracts/Frontend.sol\":137:159  uint256 public balance */\n    tag_8:\n      callvalue\n      dup1\n      iszero\n      tag_37\n      jumpi\n      0x00\n      dup1\n      revert\n    tag_37:\n      pop\n      tag_38\n      tag_39\n      jump\t// in\n    tag_38:\n      mload(0x40)\n      tag_40\n      swap2\n      swap1\n      tag_15\n      jump\t// in\n    tag_40:\n      mload(0x40)\n      dup1\n      swap2\n      sub\n      swap1\n      return\n        /* \"contracts/Frontend.sol\":1340:1494  function verifyAddress(address addrToVerify) public pure returns (bool) {... */\n    tag_9:\n      callvalue\n      dup1\n      iszero\n      tag_41\n      jumpi\n      0x00\n      dup1\n      revert\n    tag_41:\n      pop\n      tag_42\n      0x04\n      dup1\n      calldatasize\n      sub\n      dup2\n      add\n      swap1\n      tag_43\n      swap2\n      swap1\n      tag_44\n      jump\t// in\n    tag_43:\n      tag_45\n      jump\t// in\n    tag_42:\n      mload(0x40)\n      tag_46\n      swap2\n      swap1\n      tag_47\n      jump\t// in\n    tag_46:\n      mload(0x40)\n      dup1\n      swap2\n      sub\n      swap1\n      return\n        /* \"contracts/Frontend.sol\":734:819  function getBalance() public view returns (uint256) {... */\n    tag_13:\n        /* \"contracts/Frontend.sol\":777:784  uint256 */\n      0x00\n        /* \"contracts/Frontend.sol\":804:811  balance */\n      sload(0x01)\n        /* \"contracts/Frontend.sol\":797:811  return balance */\n      swap1\n      pop\n        /* \"contracts/Frontend.sol\":734:819  function getBalance() public view returns (uint256) {... */\n      swap1\n      jump\t// out\n        /* \"contracts/Frontend.sol\":1502:1969  function accessTransaction(address recipient, uint256 amount) public {... */\n    tag_20:\n        /* \"contracts/Frontend.sol\":1611:1612  0 */\n      0x00\n        /* \"contracts/Frontend.sol\":1590:1613  recipient != address(0) */\n      0xffffffffffffffffffffffffffffffffffffffff\n      and\n        /* \"contracts/Frontend.sol\":1590:1599  recipient */\n      dup3\n        /* \"contracts/Frontend.sol\":1590:1613  recipient != address(0) */\n      0xffffffffffffffffffffffffffffffffffffffff\n      and\n      sub\n        /* \"contracts/Frontend.sol\":1582:1650  require(recipient != address(0), \"Recipient address cannot be zero\") */\n      tag_50\n      jumpi\n      mload(0x40)\n      0x08c379a000000000000000000000000000000000000000000000000000000000\n      dup2\n      mstore\n      0x04\n      add\n      tag_51\n      swap1\n      tag_52\n      jump\t// in\n    tag_51:\n      mload(0x40)\n      dup1\n      swap2\n      sub\n      swap1\n      revert\n    tag_50:\n        /* \"contracts/Frontend.sol\":1678:1679  0 */\n      0x00\n        /* \"contracts/Frontend.sol\":1669:1675  amount */\n      dup2\n        /* \"contracts/Frontend.sol\":1669:1679  amount > 0 */\n      gt\n        /* \"contracts/Frontend.sol\":1661:1725  require(amount > 0, \"Transaction amount must be greater than 0\") */\n      tag_53\n      jumpi\n      mload(0x40)\n      0x08c379a000000000000000000000000000000000000000000000000000000000\n      dup2\n      mstore\n      0x04\n      add\n      tag_54\n      swap1\n      tag_55\n      jump\t// in\n    tag_54:\n      mload(0x40)\n      dup1\n      swap2\n      sub\n      swap1\n      revert\n    tag_53:\n        /* \"contracts/Frontend.sol\":1755:1761  amount */\n      dup1\n        /* \"contracts/Frontend.sol\":1744:1751  balance */\n      sload(0x01)\n        /* \"contracts/Frontend.sol\":1744:1761  balance >= amount */\n      lt\n      iszero\n        /* \"contracts/Frontend.sol\":1736:1806  require(balance >= amount, \"Insufficient balance for the transaction\") */\n      tag_56\n      jumpi\n      mload(0x40)\n      0x08c379a000000000000000000000000000000000000000000000000000000000\n      dup2\n      mstore\n      0x04\n      add\n      tag_57\n      swap1\n      tag_58\n      jump\t// in\n    tag_57:\n      mload(0x40)\n      dup1\n      swap2\n      sub\n      swap1\n      revert\n    tag_56:\n        /* \"contracts/Frontend.sol\":1851:1857  amount */\n      dup1\n        /* \"contracts/Frontend.sol\":1827:1835  balances */\n      0x02\n        /* \"contracts/Frontend.sol\":1827:1847  balances[msg.sender] */\n      0x00\n        /* \"contracts/Frontend.sol\":1836:1846  msg.sender */\n      caller\n        /* \"contracts/Frontend.sol\":1827:1847  balances[msg.sender] */\n      0xffffffffffffffffffffffffffffffffffffffff\n      and\n      0xffffffffffffffffffffffffffffffffffffffff\n      and\n      dup2\n      mstore\n      0x20\n      add\n      swap1\n      dup2\n      mstore\n      0x20\n      add\n      0x00\n      keccak256\n      0x00\n        /* \"contracts/Frontend.sol\":1827:1857  balances[msg.sender] -= amount */\n      dup3\n      dup3\n      sload\n      tag_59\n      swap2\n      swap1\n      tag_60\n      jump\t// in\n    tag_59:\n      swap3\n      pop\n      pop\n      dup2\n      swap1\n      sstore\n      pop\n        /* \"contracts/Frontend.sol\":1891:1897  amount */\n      dup1\n        /* \"contracts/Frontend.sol\":1868:1876  balances */\n      0x02\n        /* \"contracts/Frontend.sol\":1868:1887  balances[recipient] */\n      0x00\n        /* \"contracts/Frontend.sol\":1877:1886  recipient */\n      dup5\n        /* \"contracts/Frontend.sol\":1868:1887  balances[recipient] */\n      0xffffffffffffffffffffffffffffffffffffffff\n      and\n      0xffffffffffffffffffffffffffffffffffffffff\n      and\n      dup2\n      mstore\n      0x20\n      add\n      swap1\n      dup2\n      mstore\n      0x20\n      add\n      0x00\n      keccak256\n      0x00\n        /* \"contracts/Frontend.sol\":1868:1897  balances[recipient] += amount */\n      dup3\n      dup3\n      sload\n      tag_61\n      swap2\n      swap1\n      tag_62\n      jump\t// in\n    tag_61:\n      swap3\n      pop\n      pop\n      dup2\n      swap1\n      sstore\n      pop\n        /* \"contracts/Frontend.sol\":1943:1952  recipient */\n      dup2\n        /* \"contracts/Frontend.sol\":1913:1961  AccessTransaction(msg.sender, recipient, amount) */\n      0xffffffffffffffffffffffffffffffffffffffff\n      and\n        /* \"contracts/Frontend.sol\":1931:1941  msg.sender */\n      caller\n        /* \"contracts/Frontend.sol\":1913:1961  AccessTransaction(msg.sender, recipient, amount) */\n      0xffffffffffffffffffffffffffffffffffffffff\n      and\n      0x1f709b9cc4acc46f15d23cde559f244317d408b0a9af3963e9a5a1aae9ea3555\n        /* \"contracts/Frontend.sol\":1954:1960  amount */\n      dup4\n        /* \"contracts/Frontend.sol\":1913:1961  AccessTransaction(msg.sender, recipient, amount) */\n      mload(0x40)\n      tag_63\n      swap2\n      swap1\n      tag_15\n      jump\t// in\n    tag_63:\n      mload(0x40)\n      dup1\n      swap2\n      sub\n      swap1\n      log3\n        /* \"contracts/Frontend.sol\":1502:1969  function accessTransaction(address recipient, uint256 amount) public {... */\n      pop\n      pop\n      jump\t// out\n        /* \"contracts/Frontend.sol\":827:910  function displayAddress() public {... */\n    tag_23:\n        /* \"contracts/Frontend.sol\":876:902  ShowAddress(walletAddress) */\n      0x36de1704729aec1eaa0800270d30d2c2b049c9e37a91e426cdcc9ed76bb9c70f\n        /* \"contracts/Frontend.sol\":888:901  walletAddress */\n      0x00\n      dup1\n      sload\n      swap1\n      0x0100\n      exp\n      swap1\n      div\n      0xffffffffffffffffffffffffffffffffffffffff\n      and\n        /* \"contracts/Frontend.sol\":876:902  ShowAddress(walletAddress) */\n      mload(0x40)\n      tag_65\n      swap2\n      swap1\n      tag_66\n      jump\t// in\n    tag_65:\n      mload(0x40)\n      dup1\n      swap2\n      sub\n      swap1\n      log1\n        /* \"contracts/Frontend.sol\":827:910  function displayAddress() public {... */\n      jump\t// out\n        /* \"contracts/Frontend.sol\":918:1123  function topUp(uint256 topUpValue) public payable {... */\n    tag_27:\n        /* \"contracts/Frontend.sol\":1000:1001  0 */\n      0x00\n        /* \"contracts/Frontend.sol\":987:997  topUpValue */\n      dup2\n        /* \"contracts/Frontend.sol\":987:1001  topUpValue > 0 */\n      gt\n        /* \"contracts/Frontend.sol\":979:1041  require(topUpValue > 0, \"Top-up value must be greater than 0\") */\n      tag_68\n      jumpi\n      mload(0x40)\n      0x08c379a000000000000000000000000000000000000000000000000000000000\n      dup2\n      mstore\n      0x04\n      add\n      tag_69\n      swap1\n      tag_70\n      jump\t// in\n    tag_69:\n      mload(0x40)\n      dup1\n      swap2\n      sub\n      swap1\n      revert\n    tag_68:\n        /* \"contracts/Frontend.sol\":1063:1073  topUpValue */\n      dup1\n        /* \"contracts/Frontend.sol\":1052:1059  balance */\n      0x01\n      0x00\n        /* \"contracts/Frontend.sol\":1052:1073  balance += topUpValue */\n      dup3\n      dup3\n      sload\n      tag_71\n      swap2\n      swap1\n      tag_62\n      jump\t// in\n    tag_71:\n      swap3\n      pop\n      pop\n      dup2\n      swap1\n      sstore\n      pop\n        /* \"contracts/Frontend.sol\":1089:1115  TopUp(topUpValue, balance) */\n      0x9580ef1bd2c88526f7c878185e323d2bef5d3f0f9471577f3e3a2bfdb87763ef\n        /* \"contracts/Frontend.sol\":1095:1105  topUpValue */\n      dup2\n        /* \"contracts/Frontend.sol\":1107:1114  balance */\n      sload(0x01)\n        /* \"contracts/Frontend.sol\":1089:1115  TopUp(topUpValue, balance) */\n      mload(0x40)\n      tag_72\n      swap3\n      swap2\n      swap1\n      tag_73\n      jump\t// in\n    tag_72:\n      mload(0x40)\n      dup1\n      swap2\n      sub\n      swap1\n      log1\n        /* \"contracts/Frontend.sol\":918:1123  function topUp(uint256 topUpValue) public payable {... */\n      pop\n      jump\t// out\n        /* \"contracts/Frontend.sol\":1131:1332  function cashOut(uint256 cashOutValue) public {... */\n    tag_31:\n        /* \"contracts/Frontend.sol\":1207:1219  cashOutValue */\n      dup1\n        /* \"contracts/Frontend.sol\":1196:1203  balance */\n      sload(0x01)\n        /* \"contracts/Frontend.sol\":1196:1219  balance >= cashOutValue */\n      lt\n      iszero\n        /* \"contracts/Frontend.sol\":1188:1244  require(balance >= cashOutValue, \"Insufficient balance\") */\n      tag_75\n      jumpi\n      mload(0x40)\n      0x08c379a000000000000000000000000000000000000000000000000000000000\n      dup2\n      mstore\n      0x04\n      add\n      tag_76\n      swap1\n      tag_77\n      jump\t// in\n    tag_76:\n      mload(0x40)\n      dup1\n      swap2\n      sub\n      swap1\n      revert\n    tag_75:\n        /* \"contracts/Frontend.sol\":1266:1278  cashOutValue */\n      dup1\n        /* \"contracts/Frontend.sol\":1255:1262  balance */\n      0x01\n      0x00\n        /* \"contracts/Frontend.sol\":1255:1278  balance -= cashOutValue */\n      dup3\n      dup3\n      sload\n      tag_78\n      swap2\n      swap1\n      tag_60\n      jump\t// in\n    tag_78:\n      swap3\n      pop\n      pop\n      dup2\n      swap1\n      sstore\n      pop\n        /* \"contracts/Frontend.sol\":1294:1324  CashOut(cashOutValue, balance) */\n      0xa1fa8c9075ff27256cecb5d717b4a6d4955bb35d549c54b5824a02a008b251bf\n        /* \"contracts/Frontend.sol\":1302:1314  cashOutValue */\n      dup2\n        /* \"contracts/Frontend.sol\":1316:1323  balance */\n      sload(0x01)\n        /* \"contracts/Frontend.sol\":1294:1324  CashOut(cashOutValue, balance) */\n      mload(0x40)\n      tag_79\n      swap3\n      swap2\n      swap1\n      tag_73\n      jump\t// in\n    tag_79:\n      mload(0x40)\n      dup1\n      swap2\n      sub\n      swap1\n      log1\n        /* \"contracts/Frontend.sol\":1131:1332  function cashOut(uint256 cashOutValue) public {... */\n      pop\n      jump\t// out\n        /* \"contracts/Frontend.sol\":94:130  address payable public walletAddress */\n    tag_34:\n      0x00\n      dup1\n      sload\n      swap1\n      0x0100\n      exp\n      swap1\n      div\n      0xffffffffffffffffffffffffffffffffffffffff\n      and\n      dup2\n      jump\t// out\n        /* \"contracts/Frontend.sol\":137:159  uint256 public balance */\n    tag_39:\n      sload(0x01)\n      dup2\n      jump\t// out\n        /* \"contracts/Frontend.sol\":1340:1494  function verifyAddress(address addrToVerify) public pure returns (bool) {... */\n    tag_45:\n        /* \"contracts/Frontend.sol\":1406:1410  bool */\n      0x00\n        /* \"contracts/Frontend.sol\":1454:1455  0 */\n      dup1\n        /* \"contracts/Frontend.sol\":1430:1456  addrToVerify != address(0) */\n      0xffffffffffffffffffffffffffffffffffffffff\n      and\n        /* \"contracts/Frontend.sol\":1430:1442  addrToVerify */\n      dup3\n        /* \"contracts/Frontend.sol\":1430:1456  addrToVerify != address(0) */\n      0xffffffffffffffffffffffffffffffffffffffff\n      and\n      eq\n      iszero\n        /* \"contracts/Frontend.sol\":1423:1456  return addrToVerify != address(0) */\n      swap1\n      pop\n        /* \"contracts/Frontend.sol\":1340:1494  function verifyAddress(address addrToVerify) public pure returns (bool) {... */\n      swap2\n      swap1\n      pop\n      jump\t// out\n        /* \"#utility.yul\":7:84   */\n    tag_81:\n        /* \"#utility.yul\":44:51   */\n      0x00\n        /* \"#utility.yul\":73:78   */\n      dup2\n        /* \"#utility.yul\":62:78   */\n      swap1\n      pop\n        /* \"#utility.yul\":7:84   */\n      swap2\n      swap1\n      pop\n      jump\t// out\n        /* \"#utility.yul\":90:208   */\n    tag_82:\n        /* \"#utility.yul\":177:201   */\n      tag_116\n        /* \"#utility.yul\":195:200   */\n      dup2\n        /* \"#utility.yul\":177:201   */\n      tag_81\n      jump\t// in\n    tag_116:\n        /* \"#utility.yul\":172:175   */\n      dup3\n        /* \"#utility.yul\":165:202   */\n      mstore\n        /* \"#utility.yul\":90:208   */\n      pop\n      pop\n      jump\t// out\n        /* \"#utility.yul\":214:436   */\n    tag_15:\n        /* \"#utility.yul\":307:311   */\n      0x00\n        /* \"#utility.yul\":345:347   */\n      0x20\n        /* \"#utility.yul\":334:343   */\n      dup3\n        /* \"#utility.yul\":330:348   */\n      add\n        /* \"#utility.yul\":322:348   */\n      swap1\n      pop\n        /* \"#utility.yul\":358:429   */\n      tag_118\n        /* \"#utility.yul\":426:427   */\n      0x00\n        /* \"#utility.yul\":415:424   */\n      dup4\n        /* \"#utility.yul\":411:428   */\n      add\n        /* \"#utility.yul\":402:408   */\n      dup5\n        /* \"#utility.yul\":358:429   */\n      tag_82\n      jump\t// in\n    tag_118:\n        /* \"#utility.yul\":214:436   */\n      swap3\n      swap2\n      pop\n      pop\n      jump\t// out\n        /* \"#utility.yul\":523:640   */\n    tag_84:\n        /* \"#utility.yul\":632:633   */\n      0x00\n        /* \"#utility.yul\":629:630   */\n      dup1\n        /* \"#utility.yul\":622:634   */\n      revert\n        /* \"#utility.yul\":769:895   */\n    tag_86:\n        /* \"#utility.yul\":806:813   */\n      0x00\n        /* \"#utility.yul\":846:888   */\n      0xffffffffffffffffffffffffffffffffffffffff\n        /* \"#utility.yul\":839:844   */\n      dup3\n        /* \"#utility.yul\":835:889   */\n      and\n        /* \"#utility.yul\":824:889   */\n      swap1\n      pop\n        /* \"#utility.yul\":769:895   */\n      swap2\n      swap1\n      pop\n      jump\t// out\n        /* \"#utility.yul\":901:997   */\n    tag_87:\n        /* \"#utility.yul\":938:945   */\n      0x00\n        /* \"#utility.yul\":967:991   */\n      tag_124\n        /* \"#utility.yul\":985:990   */\n      dup3\n        /* \"#utility.yul\":967:991   */\n      tag_86\n      jump\t// in\n    tag_124:\n        /* \"#utility.yul\":956:991   */\n      swap1\n      pop\n        /* \"#utility.yul\":901:997   */\n      swap2\n      swap1\n      pop\n      jump\t// out\n        /* \"#utility.yul\":1003:1125   */\n    tag_88:\n        /* \"#utility.yul\":1076:1100   */\n      tag_126\n        /* \"#utility.yul\":1094:1099   */\n      dup2\n        /* \"#utility.yul\":1076:1100   */\n      tag_87\n      jump\t// in\n    tag_126:\n        /* \"#utility.yul\":1069:1074   */\n      dup2\n        /* \"#utility.yul\":1066:1101   */\n      eq\n        /* \"#utility.yul\":1056:1119   */\n      tag_127\n      jumpi\n        /* \"#utility.yul\":1115:1116   */\n      0x00\n        /* \"#utility.yul\":1112:1113   */\n      dup1\n        /* \"#utility.yul\":1105:1117   */\n      revert\n        /* \"#utility.yul\":1056:1119   */\n    tag_127:\n        /* \"#utility.yul\":1003:1125   */\n      pop\n      jump\t// out\n        /* \"#utility.yul\":1131:1270   */\n    tag_89:\n        /* \"#utility.yul\":1177:1182   */\n      0x00\n        /* \"#utility.yul\":1215:1221   */\n      dup2\n        /* \"#utility.yul\":1202:1222   */\n      calldataload\n        /* \"#utility.yul\":1193:1222   */\n      swap1\n      pop\n        /* \"#utility.yul\":1231:1264   */\n      tag_129\n        /* \"#utility.yul\":1258:1263   */\n      dup2\n        /* \"#utility.yul\":1231:1264   */\n      tag_88\n      jump\t// in\n    tag_129:\n        /* \"#utility.yul\":1131:1270   */\n      swap3\n      swap2\n      pop\n      pop\n      jump\t// out\n        /* \"#utility.yul\":1276:1398   */\n    tag_90:\n        /* \"#utility.yul\":1349:1373   */\n      tag_131\n        /* \"#utility.yul\":1367:1372   */\n      dup2\n        /* \"#utility.yul\":1349:1373   */\n      tag_81\n      jump\t// in\n    tag_131:\n        /* \"#utility.yul\":1342:1347   */\n      dup2\n        /* \"#utility.yul\":1339:1374   */\n      eq\n        /* \"#utility.yul\":1329:1392   */\n      tag_132\n      jumpi\n        /* \"#utility.yul\":1388:1389   */\n      0x00\n        /* \"#utility.yul\":1385:1386   */\n      dup1\n        /* \"#utility.yul\":1378:1390   */\n      revert\n        /* \"#utility.yul\":1329:1392   */\n    tag_132:\n        /* \"#utility.yul\":1276:1398   */\n      pop\n      jump\t// out\n        /* \"#utility.yul\":1404:1543   */\n    tag_91:\n        /* \"#utility.yul\":1450:1455   */\n      0x00\n        /* \"#utility.yul\":1488:1494   */\n      dup2\n        /* \"#utility.yul\":1475:1495   */\n      calldataload\n        /* \"#utility.yul\":1466:1495   */\n      swap1\n      pop\n        /* \"#utility.yul\":1504:1537   */\n      tag_134\n        /* \"#utility.yul\":1531:1536   */\n      dup2\n        /* \"#utility.yul\":1504:1537   */\n      tag_90\n      jump\t// in\n    tag_134:\n        /* \"#utility.yul\":1404:1543   */\n      swap3\n      swap2\n      pop\n      pop\n      jump\t// out\n        /* \"#utility.yul\":1549:2023   */\n    tag_19:\n        /* \"#utility.yul\":1617:1623   */\n      0x00\n        /* \"#utility.yul\":1625:1631   */\n      dup1\n        /* \"#utility.yul\":1674:1676   */\n      0x40\n        /* \"#utility.yul\":1662:1671   */\n      dup4\n        /* \"#utility.yul\":1653:1660   */\n      dup6\n        /* \"#utility.yul\":1649:1672   */\n      sub\n        /* \"#utility.yul\":1645:1677   */\n      slt\n        /* \"#utility.yul\":1642:1761   */\n      iszero\n      tag_136\n      jumpi\n        /* \"#utility.yul\":1680:1759   */\n      tag_137\n      tag_84\n      jump\t// in\n    tag_137:\n        /* \"#utility.yul\":1642:1761   */\n    tag_136:\n        /* \"#utility.yul\":1800:1801   */\n      0x00\n        /* \"#utility.yul\":1825:1878   */\n      tag_138\n        /* \"#utility.yul\":1870:1877   */\n      dup6\n        /* \"#utility.yul\":1861:1867   */\n      dup3\n        /* \"#utility.yul\":1850:1859   */\n      dup7\n        /* \"#utility.yul\":1846:1868   */\n      add\n        /* \"#utility.yul\":1825:1878   */\n      tag_89\n      jump\t// in\n    tag_138:\n        /* \"#utility.yul\":1815:1878   */\n      swap3\n      pop\n        /* \"#utility.yul\":1771:1888   */\n      pop\n        /* \"#utility.yul\":1927:1929   */\n      0x20\n        /* \"#utility.yul\":1953:2006   */\n      tag_139\n        /* \"#utility.yul\":1998:2005   */\n      dup6\n        /* \"#utility.yul\":1989:1995   */\n      dup3\n        /* \"#utility.yul\":1978:1987   */\n      dup7\n        /* \"#utility.yul\":1974:1996   */\n      add\n        /* \"#utility.yul\":1953:2006   */\n      tag_91\n      jump\t// in\n    tag_139:\n        /* \"#utility.yul\":1943:2006   */\n      swap2\n      pop\n        /* \"#utility.yul\":1898:2016   */\n      pop\n        /* \"#utility.yul\":1549:2023   */\n      swap3\n      pop\n      swap3\n      swap1\n      pop\n      jump\t// out\n        /* \"#utility.yul\":2029:2358   */\n    tag_26:\n        /* \"#utility.yul\":2088:2094   */\n      0x00\n        /* \"#utility.yul\":2137:2139   */\n      0x20\n        /* \"#utility.yul\":2125:2134   */\n      dup3\n        /* \"#utility.yul\":2116:2123   */\n      dup5\n        /* \"#utility.yul\":2112:2135   */\n      sub\n        /* \"#utility.yul\":2108:2140   */\n      slt\n        /* \"#utility.yul\":2105:2224   */\n      iszero\n      tag_141\n      jumpi\n        /* \"#utility.yul\":2143:2222   */\n      tag_142\n      tag_84\n      jump\t// in\n    tag_142:\n        /* \"#utility.yul\":2105:2224   */\n    tag_141:\n        /* \"#utility.yul\":2263:2264   */\n      0x00\n        /* \"#utility.yul\":2288:2341   */\n      tag_143\n        /* \"#utility.yul\":2333:2340   */\n      dup5\n        /* \"#utility.yul\":2324:2330   */\n      dup3\n        /* \"#utility.yul\":2313:2322   */\n      dup6\n        /* \"#utility.yul\":2309:2331   */\n      add\n        /* \"#utility.yul\":2288:2341   */\n      tag_91\n      jump\t// in\n    tag_143:\n        /* \"#utility.yul\":2278:2341   */\n      swap2\n      pop\n        /* \"#utility.yul\":2234:2351   */\n      pop\n        /* \"#utility.yul\":2029:2358   */\n      swap3\n      swap2\n      pop\n      pop\n      jump\t// out\n        /* \"#utility.yul\":2364:2468   */\n    tag_92:\n        /* \"#utility.yul\":2409:2416   */\n      0x00\n        /* \"#utility.yul\":2438:2462   */\n      tag_145\n        /* \"#utility.yul\":2456:2461   */\n      dup3\n        /* \"#utility.yul\":2438:2462   */\n      tag_86\n      jump\t// in\n    tag_145:\n        /* \"#utility.yul\":2427:2462   */\n      swap1\n      pop\n        /* \"#utility.yul\":2364:2468   */\n      swap2\n      swap1\n      pop\n      jump\t// out\n        /* \"#utility.yul\":2474:2616   */\n    tag_93:\n        /* \"#utility.yul\":2577:2609   */\n      tag_147\n        /* \"#utility.yul\":2603:2608   */\n      dup2\n        /* \"#utility.yul\":2577:2609   */\n      tag_92\n      jump\t// in\n    tag_147:\n        /* \"#utility.yul\":2572:2575   */\n      dup3\n        /* \"#utility.yul\":2565:2610   */\n      mstore\n        /* \"#utility.yul\":2474:2616   */\n      pop\n      pop\n      jump\t// out\n        /* \"#utility.yul\":2622:2876   */\n    tag_36:\n        /* \"#utility.yul\":2731:2735   */\n      0x00\n        /* \"#utility.yul\":2769:2771   */\n      0x20\n        /* \"#utility.yul\":2758:2767   */\n      dup3\n        /* \"#utility.yul\":2754:2772   */\n      add\n        /* \"#utility.yul\":2746:2772   */\n      swap1\n      pop\n        /* \"#utility.yul\":2782:2869   */\n      tag_149\n        /* \"#utility.yul\":2866:2867   */\n      0x00\n        /* \"#utility.yul\":2855:2864   */\n      dup4\n        /* \"#utility.yul\":2851:2868   */\n      add\n        /* \"#utility.yul\":2842:2848   */\n      dup5\n        /* \"#utility.yul\":2782:2869   */\n      tag_93\n      jump\t// in\n    tag_149:\n        /* \"#utility.yul\":2622:2876   */\n      swap3\n      swap2\n      pop\n      pop\n      jump\t// out\n        /* \"#utility.yul\":2882:3211   */\n    tag_44:\n        /* \"#utility.yul\":2941:2947   */\n      0x00\n        /* \"#utility.yul\":2990:2992   */\n      0x20\n        /* \"#utility.yul\":2978:2987   */\n      dup3\n        /* \"#utility.yul\":2969:2976   */\n      dup5\n        /* \"#utility.yul\":2965:2988   */\n      sub\n        /* \"#utility.yul\":2961:2993   */\n      slt\n        /* \"#utility.yul\":2958:3077   */\n      iszero\n      tag_151\n      jumpi\n        /* \"#utility.yul\":2996:3075   */\n      tag_152\n      tag_84\n      jump\t// in\n    tag_152:\n        /* \"#utility.yul\":2958:3077   */\n    tag_151:\n        /* \"#utility.yul\":3116:3117   */\n      0x00\n        /* \"#utility.yul\":3141:3194   */\n      tag_153\n        /* \"#utility.yul\":3186:3193   */\n      dup5\n        /* \"#utility.yul\":3177:3183   */\n      dup3\n        /* \"#utility.yul\":3166:3175   */\n      dup6\n        /* \"#utility.yul\":3162:3184   */\n      add\n        /* \"#utility.yul\":3141:3194   */\n      tag_89\n      jump\t// in\n    tag_153:\n        /* \"#utility.yul\":3131:3194   */\n      swap2\n      pop\n        /* \"#utility.yul\":3087:3204   */\n      pop\n        /* \"#utility.yul\":2882:3211   */\n      swap3\n      swap2\n      pop\n      pop\n      jump\t// out\n        /* \"#utility.yul\":3217:3307   */\n    tag_94:\n        /* \"#utility.yul\":3251:3258   */\n      0x00\n        /* \"#utility.yul\":3294:3299   */\n      dup2\n        /* \"#utility.yul\":3287:3300   */\n      iszero\n        /* \"#utility.yul\":3280:3301   */\n      iszero\n        /* \"#utility.yul\":3269:3301   */\n      swap1\n      pop\n        /* \"#utility.yul\":3217:3307   */\n      swap2\n      swap1\n      pop\n      jump\t// out\n        /* \"#utility.yul\":3313:3422   */\n    tag_95:\n        /* \"#utility.yul\":3394:3415   */\n      tag_156\n        /* \"#utility.yul\":3409:3414   */\n      dup2\n        /* \"#utility.yul\":3394:3415   */\n      tag_94\n      jump\t// in\n    tag_156:\n        /* \"#utility.yul\":3389:3392   */\n      dup3\n        /* \"#utility.yul\":3382:3416   */\n      mstore\n        /* \"#utility.yul\":3313:3422   */\n      pop\n      pop\n      jump\t// out\n        /* \"#utility.yul\":3428:3638   */\n    tag_47:\n        /* \"#utility.yul\":3515:3519   */\n      0x00\n        /* \"#utility.yul\":3553:3555   */\n      0x20\n        /* \"#utility.yul\":3542:3551   */\n      dup3\n        /* \"#utility.yul\":3538:3556   */\n      add\n        /* \"#utility.yul\":3530:3556   */\n      swap1\n      pop\n        /* \"#utility.yul\":3566:3631   */\n      tag_158\n        /* \"#utility.yul\":3628:3629   */\n      0x00\n        /* \"#utility.yul\":3617:3626   */\n      dup4\n        /* \"#utility.yul\":3613:3630   */\n      add\n        /* \"#utility.yul\":3604:3610   */\n      dup5\n        /* \"#utility.yul\":3566:3631   */\n      tag_95\n      jump\t// in\n    tag_158:\n        /* \"#utility.yul\":3428:3638   */\n      swap3\n      swap2\n      pop\n      pop\n      jump\t// out\n        /* \"#utility.yul\":3644:3813   */\n    tag_96:\n        /* \"#utility.yul\":3728:3739   */\n      0x00\n        /* \"#utility.yul\":3762:3768   */\n      dup3\n        /* \"#utility.yul\":3757:3760   */\n      dup3\n        /* \"#utility.yul\":3750:3769   */\n      mstore\n        /* \"#utility.yul\":3802:3806   */\n      0x20\n        /* \"#utility.yul\":3797:3800   */\n      dup3\n        /* \"#utility.yul\":3793:3807   */\n      add\n        /* \"#utility.yul\":3778:3807   */\n      swap1\n      pop\n        /* \"#utility.yul\":3644:3813   */\n      swap3\n      swap2\n      pop\n      pop\n      jump\t// out\n        /* \"#utility.yul\":3819:4001   */\n    tag_97:\n        /* \"#utility.yul\":3959:3993   */\n      0x526563697069656e7420616464726573732063616e6e6f74206265207a65726f\n        /* \"#utility.yul\":3955:3956   */\n      0x00\n        /* \"#utility.yul\":3947:3953   */\n      dup3\n        /* \"#utility.yul\":3943:3957   */\n      add\n        /* \"#utility.yul\":3936:3994   */\n      mstore\n        /* \"#utility.yul\":3819:4001   */\n      pop\n      jump\t// out\n        /* \"#utility.yul\":4007:4373   */\n    tag_98:\n        /* \"#utility.yul\":4149:4152   */\n      0x00\n        /* \"#utility.yul\":4170:4237   */\n      tag_162\n        /* \"#utility.yul\":4234:4236   */\n      0x20\n        /* \"#utility.yul\":4229:4232   */\n      dup4\n        /* \"#utility.yul\":4170:4237   */\n      tag_96\n      jump\t// in\n    tag_162:\n        /* \"#utility.yul\":4163:4237   */\n      swap2\n      pop\n        /* \"#utility.yul\":4246:4339   */\n      tag_163\n        /* \"#utility.yul\":4335:4338   */\n      dup3\n        /* \"#utility.yul\":4246:4339   */\n      tag_97\n      jump\t// in\n    tag_163:\n        /* \"#utility.yul\":4364:4366   */\n      0x20\n        /* \"#utility.yul\":4359:4362   */\n      dup3\n        /* \"#utility.yul\":4355:4367   */\n      add\n        /* \"#utility.yul\":4348:4367   */\n      swap1\n      pop\n        /* \"#utility.yul\":4007:4373   */\n      swap2\n      swap1\n      pop\n      jump\t// out\n        /* \"#utility.yul\":4379:4798   */\n    tag_52:\n        /* \"#utility.yul\":4545:4549   */\n      0x00\n        /* \"#utility.yul\":4583:4585   */\n      0x20\n        /* \"#utility.yul\":4572:4581   */\n      dup3\n        /* \"#utility.yul\":4568:4586   */\n      add\n        /* \"#utility.yul\":4560:4586   */\n      swap1\n      pop\n        /* \"#utility.yul\":4632:4641   */\n      dup2\n        /* \"#utility.yul\":4626:4630   */\n      dup2\n        /* \"#utility.yul\":4622:4642   */\n      sub\n        /* \"#utility.yul\":4618:4619   */\n      0x00\n        /* \"#utility.yul\":4607:4616   */\n      dup4\n        /* \"#utility.yul\":4603:4620   */\n      add\n        /* \"#utility.yul\":4596:4643   */\n      mstore\n        /* \"#utility.yul\":4660:4791   */\n      tag_165\n        /* \"#utility.yul\":4786:4790   */\n      dup2\n        /* \"#utility.yul\":4660:4791   */\n      tag_98\n      jump\t// in\n    tag_165:\n        /* \"#utility.yul\":4652:4791   */\n      swap1\n      pop\n        /* \"#utility.yul\":4379:4798   */\n      swap2\n      swap1\n      pop\n      jump\t// out\n        /* \"#utility.yul\":4804:5032   */\n    tag_99:\n        /* \"#utility.yul\":4944:4978   */\n      0x5472616e73616374696f6e20616d6f756e74206d757374206265206772656174\n        /* \"#utility.yul\":4940:4941   */\n      0x00\n        /* \"#utility.yul\":4932:4938   */\n      dup3\n        /* \"#utility.yul\":4928:4942   */\n      add\n        /* \"#utility.yul\":4921:4979   */\n      mstore\n        /* \"#utility.yul\":5013:5024   */\n      0x6572207468616e20300000000000000000000000000000000000000000000000\n        /* \"#utility.yul\":5008:5010   */\n      0x20\n        /* \"#utility.yul\":5000:5006   */\n      dup3\n        /* \"#utility.yul\":4996:5011   */\n      add\n        /* \"#utility.yul\":4989:5025   */\n      mstore\n        /* \"#utility.yul\":4804:5032   */\n      pop\n      jump\t// out\n        /* \"#utility.yul\":5038:5404   */\n    tag_100:\n        /* \"#utility.yul\":5180:5183   */\n      0x00\n        /* \"#utility.yul\":5201:5268   */\n      tag_168\n        /* \"#utility.yul\":5265:5267   */\n      0x29\n        /* \"#utility.yul\":5260:5263   */\n      dup4\n        /* \"#utility.yul\":5201:5268   */\n      tag_96\n      jump\t// in\n    tag_168:\n        /* \"#utility.yul\":5194:5268   */\n      swap2\n      pop\n        /* \"#utility.yul\":5277:5370   */\n      tag_169\n        /* \"#utility.yul\":5366:5369   */\n      dup3\n        /* \"#utility.yul\":5277:5370   */\n      tag_99\n      jump\t// in\n    tag_169:\n        /* \"#utility.yul\":5395:5397   */\n      0x40\n        /* \"#utility.yul\":5390:5393   */\n      dup3\n        /* \"#utility.yul\":5386:5398   */\n      add\n        /* \"#utility.yul\":5379:5398   */\n      swap1\n      pop\n        /* \"#utility.yul\":5038:5404   */\n      swap2\n      swap1\n      pop\n      jump\t// out\n        /* \"#utility.yul\":5410:5829   */\n    tag_55:\n        /* \"#utility.yul\":5576:5580   */\n      0x00\n        /* \"#utility.yul\":5614:5616   */\n      0x20\n        /* \"#utility.yul\":5603:5612   */\n      dup3\n        /* \"#utility.yul\":5599:5617   */\n      add\n        /* \"#utility.yul\":5591:5617   */\n      swap1\n      pop\n        /* \"#utility.yul\":5663:5672   */\n      dup2\n        /* \"#utility.yul\":5657:5661   */\n      dup2\n        /* \"#utility.yul\":5653:5673   */\n      sub\n        /* \"#utility.yul\":5649:5650   */\n      0x00\n        /* \"#utility.yul\":5638:5647   */\n      dup4\n        /* \"#utility.yul\":5634:5651   */\n      add\n        /* \"#utility.yul\":5627:5674   */\n      mstore\n        /* \"#utility.yul\":5691:5822   */\n      tag_171\n        /* \"#utility.yul\":5817:5821   */\n      dup2\n        /* \"#utility.yul\":5691:5822   */\n      tag_100\n      jump\t// in\n    tag_171:\n        /* \"#utility.yul\":5683:5822   */\n      swap1\n      pop\n        /* \"#utility.yul\":5410:5829   */\n      swap2\n      swap1\n      pop\n      jump\t// out\n        /* \"#utility.yul\":5835:6062   */\n    tag_101:\n        /* \"#utility.yul\":5975:6009   */\n      0x496e73756666696369656e742062616c616e636520666f722074686520747261\n        /* \"#utility.yul\":5971:5972   */\n      0x00\n        /* \"#utility.yul\":5963:5969   */\n      dup3\n        /* \"#utility.yul\":5959:5973   */\n      add\n        /* \"#utility.yul\":5952:6010   */\n      mstore\n        /* \"#utility.yul\":6044:6054   */\n      0x6e73616374696f6e000000000000000000000000000000000000000000000000\n        /* \"#utility.yul\":6039:6041   */\n      0x20\n        /* \"#utility.yul\":6031:6037   */\n      dup3\n        /* \"#utility.yul\":6027:6042   */\n      add\n        /* \"#utility.yul\":6020:6055   */\n      mstore\n        /* \"#utility.yul\":5835:6062   */\n      pop\n      jump\t// out\n        /* \"#utility.yul\":6068:6434   */\n    tag_102:\n        /* \"#utility.yul\":6210:6213   */\n      0x00\n        /* \"#utility.yul\":6231:6298   */\n      tag_174\n        /* \"#utility.yul\":6295:6297   */\n      0x28\n        /* \"#utility.yul\":6290:6293   */\n      dup4\n        /* \"#utility.yul\":6231:6298   */\n      tag_96\n      jump\t// in\n    tag_174:\n        /* \"#utility.yul\":6224:6298   */\n      swap2\n      pop\n        /* \"#utility.yul\":6307:6400   */\n      tag_175\n        /* \"#utility.yul\":6396:6399   */\n      dup3\n        /* \"#utility.yul\":6307:6400   */\n      tag_101\n      jump\t// in\n    tag_175:\n        /* \"#utility.yul\":6425:6427   */\n      0x40\n        /* \"#utility.yul\":6420:6423   */\n      dup3\n        /* \"#utility.yul\":6416:6428   */\n      add\n        /* \"#utility.yul\":6409:6428   */\n      swap1\n      pop\n        /* \"#utility.yul\":6068:6434   */\n      swap2\n      swap1\n      pop\n      jump\t// out\n        /* \"#utility.yul\":6440:6859   */\n    tag_58:\n        /* \"#utility.yul\":6606:6610   */\n      0x00\n        /* \"#utility.yul\":6644:6646   */\n      0x20\n        /* \"#utility.yul\":6633:6642   */\n      dup3\n        /* \"#utility.yul\":6629:6647   */\n      add\n        /* \"#utility.yul\":6621:6647   */\n      swap1\n      pop\n        /* \"#utility.yul\":6693:6702   */\n      dup2\n        /* \"#utility.yul\":6687:6691   */\n      dup2\n        /* \"#utility.yul\":6683:6703   */\n      sub\n        /* \"#utility.yul\":6679:6680   */\n      0x00\n        /* \"#utility.yul\":6668:6677   */\n      dup4\n        /* \"#utility.yul\":6664:6681   */\n      add\n        /* \"#utility.yul\":6657:6704   */\n      mstore\n        /* \"#utility.yul\":6721:6852   */\n      tag_177\n        /* \"#utility.yul\":6847:6851   */\n      dup2\n        /* \"#utility.yul\":6721:6852   */\n      tag_102\n      jump\t// in\n    tag_177:\n        /* \"#utility.yul\":6713:6852   */\n      swap1\n      pop\n        /* \"#utility.yul\":6440:6859   */\n      swap2\n      swap1\n      pop\n      jump\t// out\n        /* \"#utility.yul\":6865:7045   */\n    tag_103:\n        /* \"#utility.yul\":6913:6990   */\n      0x4e487b7100000000000000000000000000000000000000000000000000000000\n        /* \"#utility.yul\":6910:6911   */\n      0x00\n        /* \"#utility.yul\":6903:6991   */\n      mstore\n        /* \"#utility.yul\":7010:7014   */\n      0x11\n        /* \"#utility.yul\":7007:7008   */\n      0x04\n        /* \"#utility.yul\":7000:7015   */\n      mstore\n        /* \"#utility.yul\":7034:7038   */\n      0x24\n        /* \"#utility.yul\":7031:7032   */\n      0x00\n        /* \"#utility.yul\":7024:7039   */\n      revert\n        /* \"#utility.yul\":7051:7245   */\n    tag_60:\n        /* \"#utility.yul\":7091:7095   */\n      0x00\n        /* \"#utility.yul\":7111:7131   */\n      tag_180\n        /* \"#utility.yul\":7129:7130   */\n      dup3\n        /* \"#utility.yul\":7111:7131   */\n      tag_81\n      jump\t// in\n    tag_180:\n        /* \"#utility.yul\":7106:7131   */\n      swap2\n      pop\n        /* \"#utility.yul\":7145:7165   */\n      tag_181\n        /* \"#utility.yul\":7163:7164   */\n      dup4\n        /* \"#utility.yul\":7145:7165   */\n      tag_81\n      jump\t// in\n    tag_181:\n        /* \"#utility.yul\":7140:7165   */\n      swap3\n      pop\n        /* \"#utility.yul\":7189:7190   */\n      dup3\n        /* \"#utility.yul\":7186:7187   */\n      dup3\n        /* \"#utility.yul\":7182:7191   */\n      sub\n        /* \"#utility.yul\":7174:7191   */\n      swap1\n      pop\n        /* \"#utility.yul\":7213:7214   */\n      dup2\n        /* \"#utility.yul\":7207:7211   */\n      dup2\n        /* \"#utility.yul\":7204:7215   */\n      gt\n        /* \"#utility.yul\":7201:7238   */\n      iszero\n      tag_182\n      jumpi\n        /* \"#utility.yul\":7218:7236   */\n      tag_183\n      tag_103\n      jump\t// in\n    tag_183:\n        /* \"#utility.yul\":7201:7238   */\n    tag_182:\n        /* \"#utility.yul\":7051:7245   */\n      swap3\n      swap2\n      pop\n      pop\n      jump\t// out\n        /* \"#utility.yul\":7251:7442   */\n    tag_62:\n        /* \"#utility.yul\":7291:7294   */\n      0x00\n        /* \"#utility.yul\":7310:7330   */\n      tag_185\n        /* \"#utility.yul\":7328:7329   */\n      dup3\n        /* \"#utility.yul\":7310:7330   */\n      tag_81\n      jump\t// in\n    tag_185:\n        /* \"#utility.yul\":7305:7330   */\n      swap2\n      pop\n        /* \"#utility.yul\":7344:7364   */\n      tag_186\n        /* \"#utility.yul\":7362:7363   */\n      dup4\n        /* \"#utility.yul\":7344:7364   */\n      tag_81\n      jump\t// in\n    tag_186:\n        /* \"#utility.yul\":7339:7364   */\n      swap3\n      pop\n        /* \"#utility.yul\":7387:7388   */\n      dup3\n        /* \"#utility.yul\":7384:7385   */\n      dup3\n        /* \"#utility.yul\":7380:7389   */\n      add\n        /* \"#utility.yul\":7373:7389   */\n      swap1\n      pop\n        /* \"#utility.yul\":7408:7411   */\n      dup1\n        /* \"#utility.yul\":7405:7406   */\n      dup3\n        /* \"#utility.yul\":7402:7412   */\n      gt\n        /* \"#utility.yul\":7399:7435   */\n      iszero\n      tag_187\n      jumpi\n        /* \"#utility.yul\":7415:7433   */\n      tag_188\n      tag_103\n      jump\t// in\n    tag_188:\n        /* \"#utility.yul\":7399:7435   */\n    tag_187:\n        /* \"#utility.yul\":7251:7442   */\n      swap3\n      swap2\n      pop\n      pop\n      jump\t// out\n        /* \"#utility.yul\":7448:7508   */\n    tag_104:\n        /* \"#utility.yul\":7476:7479   */\n      0x00\n        /* \"#utility.yul\":7497:7502   */\n      dup2\n        /* \"#utility.yul\":7490:7502   */\n      swap1\n      pop\n        /* \"#utility.yul\":7448:7508   */\n      swap2\n      swap1\n      pop\n      jump\t// out\n        /* \"#utility.yul\":7514:7656   */\n    tag_105:\n        /* \"#utility.yul\":7564:7573   */\n      0x00\n        /* \"#utility.yul\":7597:7650   */\n      tag_191\n        /* \"#utility.yul\":7615:7649   */\n      tag_192\n        /* \"#utility.yul\":7624:7648   */\n      tag_193\n        /* \"#utility.yul\":7642:7647   */\n      dup5\n        /* \"#utility.yul\":7624:7648   */\n      tag_86\n      jump\t// in\n    tag_193:\n        /* \"#utility.yul\":7615:7649   */\n      tag_104\n      jump\t// in\n    tag_192:\n        /* \"#utility.yul\":7597:7650   */\n      tag_86\n      jump\t// in\n    tag_191:\n        /* \"#utility.yul\":7584:7650   */\n      swap1\n      pop\n        /* \"#utility.yul\":7514:7656   */\n      swap2\n      swap1\n      pop\n      jump\t// out\n        /* \"#utility.yul\":7662:7788   */\n    tag_106:\n        /* \"#utility.yul\":7712:7721   */\n      0x00\n        /* \"#utility.yul\":7745:7782   */\n      tag_195\n        /* \"#utility.yul\":7776:7781   */\n      dup3\n        /* \"#utility.yul\":7745:7782   */\n      tag_105\n      jump\t// in\n    tag_195:\n        /* \"#utility.yul\":7732:7782   */\n      swap1\n      pop\n        /* \"#utility.yul\":7662:7788   */\n      swap2\n      swap1\n      pop\n      jump\t// out\n        /* \"#utility.yul\":7794:7928   */\n    tag_107:\n        /* \"#utility.yul\":7852:7861   */\n      0x00\n        /* \"#utility.yul\":7885:7922   */\n      tag_197\n        /* \"#utility.yul\":7916:7921   */\n      dup3\n        /* \"#utility.yul\":7885:7922   */\n      tag_106\n      jump\t// in\n    tag_197:\n        /* \"#utility.yul\":7872:7922   */\n      swap1\n      pop\n        /* \"#utility.yul\":7794:7928   */\n      swap2\n      swap1\n      pop\n      jump\t// out\n        /* \"#utility.yul\":7934:8081   */\n    tag_108:\n        /* \"#utility.yul\":8029:8074   */\n      tag_199\n        /* \"#utility.yul\":8068:8073   */\n      dup2\n        /* \"#utility.yul\":8029:8074   */\n      tag_107\n      jump\t// in\n    tag_199:\n        /* \"#utility.yul\":8024:8027   */\n      dup3\n        /* \"#utility.yul\":8017:8075   */\n      mstore\n        /* \"#utility.yul\":7934:8081   */\n      pop\n      pop\n      jump\t// out\n        /* \"#utility.yul\":8087:8325   */\n    tag_66:\n        /* \"#utility.yul\":8188:8192   */\n      0x00\n        /* \"#utility.yul\":8226:8228   */\n      0x20\n        /* \"#utility.yul\":8215:8224   */\n      dup3\n        /* \"#utility.yul\":8211:8229   */\n      add\n        /* \"#utility.yul\":8203:8229   */\n      swap1\n      pop\n        /* \"#utility.yul\":8239:8318   */\n      tag_201\n        /* \"#utility.yul\":8315:8316   */\n      0x00\n        /* \"#utility.yul\":8304:8313   */\n      dup4\n        /* \"#utility.yul\":8300:8317   */\n      add\n        /* \"#utility.yul\":8291:8297   */\n      dup5\n        /* \"#utility.yul\":8239:8318   */\n      tag_108\n      jump\t// in\n    tag_201:\n        /* \"#utility.yul\":8087:8325   */\n      swap3\n      swap2\n      pop\n      pop\n      jump\t// out\n        /* \"#utility.yul\":8331:8553   */\n    tag_109:\n        /* \"#utility.yul\":8471:8505   */\n      0x546f702d75702076616c7565206d757374206265206772656174657220746861\n        /* \"#utility.yul\":8467:8468   */\n      0x00\n        /* \"#utility.yul\":8459:8465   */\n      dup3\n        /* \"#utility.yul\":8455:8469   */\n      add\n        /* \"#utility.yul\":8448:8506   */\n      mstore\n        /* \"#utility.yul\":8540:8545   */\n      0x6e20300000000000000000000000000000000000000000000000000000000000\n        /* \"#utility.yul\":8535:8537   */\n      0x20\n        /* \"#utility.yul\":8527:8533   */\n      dup3\n        /* \"#utility.yul\":8523:8538   */\n      add\n        /* \"#utility.yul\":8516:8546   */\n      mstore\n        /* \"#utility.yul\":8331:8553   */\n      pop\n      jump\t// out\n        /* \"#utility.yul\":8559:8925   */\n    tag_110:\n        /* \"#utility.yul\":8701:8704   */\n      0x00\n        /* \"#utility.yul\":8722:8789   */\n      tag_204\n        /* \"#utility.yul\":8786:8788   */\n      0x23\n        /* \"#utility.yul\":8781:8784   */\n      dup4\n        /* \"#utility.yul\":8722:8789   */\n      tag_96\n      jump\t// in\n    tag_204:\n        /* \"#utility.yul\":8715:8789   */\n      swap2\n      pop\n        /* \"#utility.yul\":8798:8891   */\n      tag_205\n        /* \"#utility.yul\":8887:8890   */\n      dup3\n        /* \"#utility.yul\":8798:8891   */\n      tag_109\n      jump\t// in\n    tag_205:\n        /* \"#utility.yul\":8916:8918   */\n      0x40\n        /* \"#utility.yul\":8911:8914   */\n      dup3\n        /* \"#utility.yul\":8907:8919   */\n      add\n        /* \"#utility.yul\":8900:8919   */\n      swap1\n      pop\n        /* \"#utility.yul\":8559:8925   */\n      swap2\n      swap1\n      pop\n      jump\t// out\n        /* \"#utility.yul\":8931:9350   */\n    tag_70:\n        /* \"#utility.yul\":9097:9101   */\n      0x00\n        /* \"#utility.yul\":9135:9137   */\n      0x20\n        /* \"#utility.yul\":9124:9133   */\n      dup3\n        /* \"#utility.yul\":9120:9138   */\n      add\n        /* \"#utility.yul\":9112:9138   */\n      swap1\n      pop\n        /* \"#utility.yul\":9184:9193   */\n      dup2\n        /* \"#utility.yul\":9178:9182   */\n      dup2\n        /* \"#utility.yul\":9174:9194   */\n      sub\n        /* \"#utility.yul\":9170:9171   */\n      0x00\n        /* \"#utility.yul\":9159:9168   */\n      dup4\n        /* \"#utility.yul\":9155:9172   */\n      add\n        /* \"#utility.yul\":9148:9195   */\n      mstore\n        /* \"#utility.yul\":9212:9343   */\n      tag_207\n        /* \"#utility.yul\":9338:9342   */\n      dup2\n        /* \"#utility.yul\":9212:9343   */\n      tag_110\n      jump\t// in\n    tag_207:\n        /* \"#utility.yul\":9204:9343   */\n      swap1\n      pop\n        /* \"#utility.yul\":8931:9350   */\n      swap2\n      swap1\n      pop\n      jump\t// out\n        /* \"#utility.yul\":9356:9688   */\n    tag_73:\n        /* \"#utility.yul\":9477:9481   */\n      0x00\n        /* \"#utility.yul\":9515:9517   */\n      0x40\n        /* \"#utility.yul\":9504:9513   */\n      dup3\n        /* \"#utility.yul\":9500:9518   */\n      add\n        /* \"#utility.yul\":9492:9518   */\n      swap1\n      pop\n        /* \"#utility.yul\":9528:9599   */\n      tag_209\n        /* \"#utility.yul\":9596:9597   */\n      0x00\n        /* \"#utility.yul\":9585:9594   */\n      dup4\n        /* \"#utility.yul\":9581:9598   */\n      add\n        /* \"#utility.yul\":9572:9578   */\n      dup6\n        /* \"#utility.yul\":9528:9599   */\n      tag_82\n      jump\t// in\n    tag_209:\n        /* \"#utility.yul\":9609:9681   */\n      tag_210\n        /* \"#utility.yul\":9677:9679   */\n      0x20\n        /* \"#utility.yul\":9666:9675   */\n      dup4\n        /* \"#utility.yul\":9662:9680   */\n      add\n        /* \"#utility.yul\":9653:9659   */\n      dup5\n        /* \"#utility.yul\":9609:9681   */\n      tag_82\n      jump\t// in\n    tag_210:\n        /* \"#utility.yul\":9356:9688   */\n      swap4\n      swap3\n      pop\n      pop\n      pop\n      jump\t// out\n        /* \"#utility.yul\":9694:9864   */\n    tag_111:\n        /* \"#utility.yul\":9834:9856   */\n      0x496e73756666696369656e742062616c616e6365000000000000000000000000\n        /* \"#utility.yul\":9830:9831   */\n      0x00\n        /* \"#utility.yul\":9822:9828   */\n      dup3\n        /* \"#utility.yul\":9818:9832   */\n      add\n        /* \"#utility.yul\":9811:9857   */\n      mstore\n        /* \"#utility.yul\":9694:9864   */\n      pop\n      jump\t// out\n        /* \"#utility.yul\":9870:10236   */\n    tag_112:\n        /* \"#utility.yul\":10012:10015   */\n      0x00\n        /* \"#utility.yul\":10033:10100   */\n      tag_213\n        /* \"#utility.yul\":10097:10099   */\n      0x14\n        /* \"#utility.yul\":10092:10095   */\n      dup4\n        /* \"#utility.yul\":10033:10100   */\n      tag_96\n      jump\t// in\n    tag_213:\n        /* \"#utility.yul\":10026:10100   */\n      swap2\n      pop\n        /* \"#utility.yul\":10109:10202   */\n      tag_214\n        /* \"#utility.yul\":10198:10201   */\n      dup3\n        /* \"#utility.yul\":10109:10202   */\n      tag_111\n      jump\t// in\n    tag_214:\n        /* \"#utility.yul\":10227:10229   */\n      0x20\n        /* \"#utility.yul\":10222:10225   */\n      dup3\n        /* \"#utility.yul\":10218:10230   */\n      add\n        /* \"#utility.yul\":10211:10230   */\n      swap1\n      pop\n        /* \"#utility.yul\":9870:10236   */\n      swap2\n      swap1\n      pop\n      jump\t// out\n        /* \"#utility.yul\":10242:10661   */\n    tag_77:\n        /* \"#utility.yul\":10408:10412   */\n      0x00\n        /* \"#utility.yul\":10446:10448   */\n      0x20\n        /* \"#utility.yul\":10435:10444   */\n      dup3\n        /* \"#utility.yul\":10431:10449   */\n      add\n        /* \"#utility.yul\":10423:10449   */\n      swap1\n      pop\n        /* \"#utility.yul\":10495:10504   */\n      dup2\n        /* \"#utility.yul\":10489:10493   */\n      dup2\n        /* \"#utility.yul\":10485:10505   */\n      sub\n        /* \"#utility.yul\":10481:10482   */\n      0x00\n        /* \"#utility.yul\":10470:10479   */\n      dup4\n        /* \"#utility.yul\":10466:10483   */\n      add\n        /* \"#utility.yul\":10459:10506   */\n      mstore\n        /* \"#utility.yul\":10523:10654   */\n      tag_216\n        /* \"#utility.yul\":10649:10653   */\n      dup2\n        /* \"#utility.yul\":10523:10654   */\n      tag_112\n      jump\t// in\n    tag_216:\n        /* \"#utility.yul\":10515:10654   */\n      swap1\n      pop\n        /* \"#utility.yul\":10242:10661   */\n      swap2\n      swap1\n      pop\n      jump\t// out\n\n    auxdata: 0xa2646970667358221220f7973fe5b5179467a231d22e3e7bc760b9ad2f6460ce7351b0f74ce2b62b7b0564736f6c634300081a0033\n}\n",
				"bytecode": {
					"linkReferences": {},
					"object": "6080604052348015600e575f80fd5b50604051610c38380380610c388339818101604052810190602e919060ab565b80600181905550335f806101000a81548173ffffffffffffffffffffffffffffffffffffffff021916908373ffffffffffffffffffffffffffffffffffffffff1602179055505060d1565b5f80fd5b5f819050919050565b608d81607d565b81146096575f80fd5b50565b5f8151905060a5816086565b92915050565b5f6020828403121560bd5760bc6079565b5b5f60c8848285016099565b91505092915050565b610b5a806100de5f395ff3fe60806040526004361061007a575f3560e01c80635c7b79f51161004d5780635c7b79f5146101025780636ad5b3ea1461012a578063b69ef8a814610154578063fcb2cafc1461017e5761007a565b806312065fe01461007e57806319363915146100a85780634bc848e8146100d057806350017f3e146100e6575b5f80fd5b348015610089575f80fd5b506100926101ba565b60405161009f91906105cb565b60405180910390f35b3480156100b3575f80fd5b506100ce60048036038101906100c9919061066c565b6101c3565b005b3480156100db575f80fd5b506100e46103c7565b005b61010060048036038101906100fb91906106aa565b61041f565b005b34801561010d575f80fd5b50610128600480360381019061012391906106aa565b6104b7565b005b348015610135575f80fd5b5061013e610552565b60405161014b91906106f5565b60405180910390f35b34801561015f575f80fd5b50610168610575565b60405161017591906105cb565b60405180910390f35b348015610189575f80fd5b506101a4600480360381019061019f919061070e565b61057b565b6040516101b19190610753565b60405180910390f35b5f600154905090565b5f73ffffffffffffffffffffffffffffffffffffffff168273ffffffffffffffffffffffffffffffffffffffff1603610231576040517f08c379a0000000000000000000000000000000000000000000000000000000008152600401610228906107c6565b60405180910390fd5b5f8111610273576040517f08c379a000000000000000000000000000000000000000000000000000000000815260040161026a90610854565b60405180910390fd5b8060015410156102b8576040517f08c379a00000000000000000000000000000000000000000000000000000000081526004016102af906108e2565b60405180910390fd5b8060025f3373ffffffffffffffffffffffffffffffffffffffff1673ffffffffffffffffffffffffffffffffffffffff1681526020019081526020015f205f828254610304919061092d565b925050819055508060025f8473ffffffffffffffffffffffffffffffffffffffff1673ffffffffffffffffffffffffffffffffffffffff1681526020019081526020015f205f8282546103579190610960565b925050819055508173ffffffffffffffffffffffffffffffffffffffff163373ffffffffffffffffffffffffffffffffffffffff167f1f709b9cc4acc46f15d23cde559f244317d408b0a9af3963e9a5a1aae9ea3555836040516103bb91906105cb565b60405180910390a35050565b7f36de1704729aec1eaa0800270d30d2c2b049c9e37a91e426cdcc9ed76bb9c70f5f8054906101000a900473ffffffffffffffffffffffffffffffffffffffff1660405161041591906109ee565b60405180910390a1565b5f8111610461576040517f08c379a000000000000000000000000000000000000000000000000000000000815260040161045890610a77565b60405180910390fd5b8060015f8282546104729190610960565b925050819055507f9580ef1bd2c88526f7c878185e323d2bef5d3f0f9471577f3e3a2bfdb87763ef816001546040516104ac929190610a95565b60405180910390a150565b8060015410156104fc576040517f08c379a00000000000000000000000000000000000000000000000000000000081526004016104f390610b06565b60405180910390fd5b8060015f82825461050d919061092d565b925050819055507fa1fa8c9075ff27256cecb5d717b4a6d4955bb35d549c54b5824a02a008b251bf81600154604051610547929190610a95565b60405180910390a150565b5f8054906101000a900473ffffffffffffffffffffffffffffffffffffffff1681565b60015481565b5f8073ffffffffffffffffffffffffffffffffffffffff168273ffffffffffffffffffffffffffffffffffffffff1614159050919050565b5f819050919050565b6105c5816105b3565b82525050565b5f6020820190506105de5f8301846105bc565b92915050565b5f80fd5b5f73ffffffffffffffffffffffffffffffffffffffff82169050919050565b5f610611826105e8565b9050919050565b61062181610607565b811461062b575f80fd5b50565b5f8135905061063c81610618565b92915050565b61064b816105b3565b8114610655575f80fd5b50565b5f8135905061066681610642565b92915050565b5f8060408385031215610682576106816105e4565b5b5f61068f8582860161062e565b92505060206106a085828601610658565b9150509250929050565b5f602082840312156106bf576106be6105e4565b5b5f6106cc84828501610658565b91505092915050565b5f6106df826105e8565b9050919050565b6106ef816106d5565b82525050565b5f6020820190506107085f8301846106e6565b92915050565b5f60208284031215610723576107226105e4565b5b5f6107308482850161062e565b91505092915050565b5f8115159050919050565b61074d81610739565b82525050565b5f6020820190506107665f830184610744565b92915050565b5f82825260208201905092915050565b7f526563697069656e7420616464726573732063616e6e6f74206265207a65726f5f82015250565b5f6107b060208361076c565b91506107bb8261077c565b602082019050919050565b5f6020820190508181035f8301526107dd816107a4565b9050919050565b7f5472616e73616374696f6e20616d6f756e74206d7573742062652067726561745f8201527f6572207468616e20300000000000000000000000000000000000000000000000602082015250565b5f61083e60298361076c565b9150610849826107e4565b604082019050919050565b5f6020820190508181035f83015261086b81610832565b9050919050565b7f496e73756666696369656e742062616c616e636520666f7220746865207472615f8201527f6e73616374696f6e000000000000000000000000000000000000000000000000602082015250565b5f6108cc60288361076c565b91506108d782610872565b604082019050919050565b5f6020820190508181035f8301526108f9816108c0565b9050919050565b7f4e487b71000000000000000000000000000000000000000000000000000000005f52601160045260245ffd5b5f610937826105b3565b9150610942836105b3565b925082820390508181111561095a57610959610900565b5b92915050565b5f61096a826105b3565b9150610975836105b3565b925082820190508082111561098d5761098c610900565b5b92915050565b5f819050919050565b5f6109b66109b16109ac846105e8565b610993565b6105e8565b9050919050565b5f6109c78261099c565b9050919050565b5f6109d8826109bd565b9050919050565b6109e8816109ce565b82525050565b5f602082019050610a015f8301846109df565b92915050565b7f546f702d75702076616c7565206d7573742062652067726561746572207468615f8201527f6e20300000000000000000000000000000000000000000000000000000000000602082015250565b5f610a6160238361076c565b9150610a6c82610a07565b604082019050919050565b5f6020820190508181035f830152610a8e81610a55565b9050919050565b5f604082019050610aa85f8301856105bc565b610ab560208301846105bc565b9392505050565b7f496e73756666696369656e742062616c616e63650000000000000000000000005f82015250565b5f610af060148361076c565b9150610afb82610abc565b602082019050919050565b5f6020820190508181035f830152610b1d81610ae4565b905091905056fea2646970667358221220f7973fe5b5179467a231d22e3e7bc760b9ad2f6460ce7351b0f74ce2b62b7b0564736f6c634300081a0033",
					"opcodes": "PUSH1 0x80 PUSH1 0x40 MSTORE CALLVALUE DUP1 ISZERO PUSH1 0xE JUMPI PUSH0 DUP1 REVERT JUMPDEST POP PUSH1 0x40 MLOAD PUSH2 0xC38 CODESIZE SUB DUP1 PUSH2 0xC38 DUP4 CODECOPY DUP2 DUP2 ADD PUSH1 0x40 MSTORE DUP2 ADD SWAP1 PUSH1 0x2E SWAP2 SWAP1 PUSH1 0xAB JUMP JUMPDEST DUP1 PUSH1 0x1 DUP2 SWAP1 SSTORE POP CALLER PUSH0 DUP1 PUSH2 0x100 EXP DUP2 SLOAD DUP2 PUSH20 0xFFFFFFFFFFFFFFFFFFFFFFFFFFFFFFFFFFFFFFFF MUL NOT AND SWAP1 DUP4 PUSH20 0xFFFFFFFFFFFFFFFFFFFFFFFFFFFFFFFFFFFFFFFF AND MUL OR SWAP1 SSTORE POP POP PUSH1 0xD1 JUMP JUMPDEST PUSH0 DUP1 REVERT JUMPDEST PUSH0 DUP2 SWAP1 POP SWAP2 SWAP1 POP JUMP JUMPDEST PUSH1 0x8D DUP2 PUSH1 0x7D JUMP JUMPDEST DUP2 EQ PUSH1 0x96 JUMPI PUSH0 DUP1 REVERT JUMPDEST POP JUMP JUMPDEST PUSH0 DUP2 MLOAD SWAP1 POP PUSH1 0xA5 DUP2 PUSH1 0x86 JUMP JUMPDEST SWAP3 SWAP2 POP POP JUMP JUMPDEST PUSH0 PUSH1 0x20 DUP3 DUP5 SUB SLT ISZERO PUSH1 0xBD JUMPI PUSH1 0xBC PUSH1 0x79 JUMP JUMPDEST JUMPDEST PUSH0 PUSH1 0xC8 DUP5 DUP3 DUP6 ADD PUSH1 0x99 JUMP JUMPDEST SWAP2 POP POP SWAP3 SWAP2 POP POP JUMP JUMPDEST PUSH2 0xB5A DUP1 PUSH2 0xDE PUSH0 CODECOPY PUSH0 RETURN INVALID PUSH1 0x80 PUSH1 0x40 MSTORE PUSH1 0x4 CALLDATASIZE LT PUSH2 0x7A JUMPI PUSH0 CALLDATALOAD PUSH1 0xE0 SHR DUP1 PUSH4 0x5C7B79F5 GT PUSH2 0x4D JUMPI DUP1 PUSH4 0x5C7B79F5 EQ PUSH2 0x102 JUMPI DUP1 PUSH4 0x6AD5B3EA EQ PUSH2 0x12A JUMPI DUP1 PUSH4 0xB69EF8A8 EQ PUSH2 0x154 JUMPI DUP1 PUSH4 0xFCB2CAFC EQ PUSH2 0x17E JUMPI PUSH2 0x7A JUMP JUMPDEST DUP1 PUSH4 0x12065FE0 EQ PUSH2 0x7E JUMPI DUP1 PUSH4 0x19363915 EQ PUSH2 0xA8 JUMPI DUP1 PUSH4 0x4BC848E8 EQ PUSH2 0xD0 JUMPI DUP1 PUSH4 0x50017F3E EQ PUSH2 0xE6 JUMPI JUMPDEST PUSH0 DUP1 REVERT JUMPDEST CALLVALUE DUP1 ISZERO PUSH2 0x89 JUMPI PUSH0 DUP1 REVERT JUMPDEST POP PUSH2 0x92 PUSH2 0x1BA JUMP JUMPDEST PUSH1 0x40 MLOAD PUSH2 0x9F SWAP2 SWAP1 PUSH2 0x5CB JUMP JUMPDEST PUSH1 0x40 MLOAD DUP1 SWAP2 SUB SWAP1 RETURN JUMPDEST CALLVALUE DUP1 ISZERO PUSH2 0xB3 JUMPI PUSH0 DUP1 REVERT JUMPDEST POP PUSH2 0xCE PUSH1 0x4 DUP1 CALLDATASIZE SUB DUP2 ADD SWAP1 PUSH2 0xC9 SWAP2 SWAP1 PUSH2 0x66C JUMP JUMPDEST PUSH2 0x1C3 JUMP JUMPDEST STOP JUMPDEST CALLVALUE DUP1 ISZERO PUSH2 0xDB JUMPI PUSH0 DUP1 REVERT JUMPDEST POP PUSH2 0xE4 PUSH2 0x3C7 JUMP JUMPDEST STOP JUMPDEST PUSH2 0x100 PUSH1 0x4 DUP1 CALLDATASIZE SUB DUP2 ADD SWAP1 PUSH2 0xFB SWAP2 SWAP1 PUSH2 0x6AA JUMP JUMPDEST PUSH2 0x41F JUMP JUMPDEST STOP JUMPDEST CALLVALUE DUP1 ISZERO PUSH2 0x10D JUMPI PUSH0 DUP1 REVERT JUMPDEST POP PUSH2 0x128 PUSH1 0x4 DUP1 CALLDATASIZE SUB DUP2 ADD SWAP1 PUSH2 0x123 SWAP2 SWAP1 PUSH2 0x6AA JUMP JUMPDEST PUSH2 0x4B7 JUMP JUMPDEST STOP JUMPDEST CALLVALUE DUP1 ISZERO PUSH2 0x135 JUMPI PUSH0 DUP1 REVERT JUMPDEST POP PUSH2 0x13E PUSH2 0x552 JUMP JUMPDEST PUSH1 0x40 MLOAD PUSH2 0x14B SWAP2 SWAP1 PUSH2 0x6F5 JUMP JUMPDEST PUSH1 0x40 MLOAD DUP1 SWAP2 SUB SWAP1 RETURN JUMPDEST CALLVALUE DUP1 ISZERO PUSH2 0x15F JUMPI PUSH0 DUP1 REVERT JUMPDEST POP PUSH2 0x168 PUSH2 0x575 JUMP JUMPDEST PUSH1 0x40 MLOAD PUSH2 0x175 SWAP2 SWAP1 PUSH2 0x5CB JUMP JUMPDEST PUSH1 0x40 MLOAD DUP1 SWAP2 SUB SWAP1 RETURN JUMPDEST CALLVALUE DUP1 ISZERO PUSH2 0x189 JUMPI PUSH0 DUP1 REVERT JUMPDEST POP PUSH2 0x1A4 PUSH1 0x4 DUP1 CALLDATASIZE SUB DUP2 ADD SWAP1 PUSH2 0x19F SWAP2 SWAP1 PUSH2 0x70E JUMP JUMPDEST PUSH2 0x57B JUMP JUMPDEST PUSH1 0x40 MLOAD PUSH2 0x1B1 SWAP2 SWAP1 PUSH2 0x753 JUMP JUMPDEST PUSH1 0x40 MLOAD DUP1 SWAP2 SUB SWAP1 RETURN JUMPDEST PUSH0 PUSH1 0x1 SLOAD SWAP1 POP SWAP1 JUMP JUMPDEST PUSH0 PUSH20 0xFFFFFFFFFFFFFFFFFFFFFFFFFFFFFFFFFFFFFFFF AND DUP3 PUSH20 0xFFFFFFFFFFFFFFFFFFFFFFFFFFFFFFFFFFFFFFFF AND SUB PUSH2 0x231 JUMPI PUSH1 0x40 MLOAD PUSH32 0x8C379A000000000000000000000000000000000000000000000000000000000 DUP2 MSTORE PUSH1 0x4 ADD PUSH2 0x228 SWAP1 PUSH2 0x7C6 JUMP JUMPDEST PUSH1 0x40 MLOAD DUP1 SWAP2 SUB SWAP1 REVERT JUMPDEST PUSH0 DUP2 GT PUSH2 0x273 JUMPI PUSH1 0x40 MLOAD PUSH32 0x8C379A000000000000000000000000000000000000000000000000000000000 DUP2 MSTORE PUSH1 0x4 ADD PUSH2 0x26A SWAP1 PUSH2 0x854 JUMP JUMPDEST PUSH1 0x40 MLOAD DUP1 SWAP2 SUB SWAP1 REVERT JUMPDEST DUP1 PUSH1 0x1 SLOAD LT ISZERO PUSH2 0x2B8 JUMPI PUSH1 0x40 MLOAD PUSH32 0x8C379A000000000000000000000000000000000000000000000000000000000 DUP2 MSTORE PUSH1 0x4 ADD PUSH2 0x2AF SWAP1 PUSH2 0x8E2 JUMP JUMPDEST PUSH1 0x40 MLOAD DUP1 SWAP2 SUB SWAP1 REVERT JUMPDEST DUP1 PUSH1 0x2 PUSH0 CALLER PUSH20 0xFFFFFFFFFFFFFFFFFFFFFFFFFFFFFFFFFFFFFFFF AND PUSH20 0xFFFFFFFFFFFFFFFFFFFFFFFFFFFFFFFFFFFFFFFF AND DUP2 MSTORE PUSH1 0x20 ADD SWAP1 DUP2 MSTORE PUSH1 0x20 ADD PUSH0 KECCAK256 PUSH0 DUP3 DUP3 SLOAD PUSH2 0x304 SWAP2 SWAP1 PUSH2 0x92D JUMP JUMPDEST SWAP3 POP POP DUP2 SWAP1 SSTORE POP DUP1 PUSH1 0x2 PUSH0 DUP5 PUSH20 0xFFFFFFFFFFFFFFFFFFFFFFFFFFFFFFFFFFFFFFFF AND PUSH20 0xFFFFFFFFFFFFFFFFFFFFFFFFFFFFFFFFFFFFFFFF AND DUP2 MSTORE PUSH1 0x20 ADD SWAP1 DUP2 MSTORE PUSH1 0x20 ADD PUSH0 KECCAK256 PUSH0 DUP3 DUP3 SLOAD PUSH2 0x357 SWAP2 SWAP1 PUSH2 0x960 JUMP JUMPDEST SWAP3 POP POP DUP2 SWAP1 SSTORE POP DUP2 PUSH20 0xFFFFFFFFFFFFFFFFFFFFFFFFFFFFFFFFFFFFFFFF AND CALLER PUSH20 0xFFFFFFFFFFFFFFFFFFFFFFFFFFFFFFFFFFFFFFFF AND PUSH32 0x1F709B9CC4ACC46F15D23CDE559F244317D408B0A9AF3963E9A5A1AAE9EA3555 DUP4 PUSH1 0x40 MLOAD PUSH2 0x3BB SWAP2 SWAP1 PUSH2 0x5CB JUMP JUMPDEST PUSH1 0x40 MLOAD DUP1 SWAP2 SUB SWAP1 LOG3 POP POP JUMP JUMPDEST PUSH32 0x36DE1704729AEC1EAA0800270D30D2C2B049C9E37A91E426CDCC9ED76BB9C70F PUSH0 DUP1 SLOAD SWAP1 PUSH2 0x100 EXP SWAP1 DIV PUSH20 0xFFFFFFFFFFFFFFFFFFFFFFFFFFFFFFFFFFFFFFFF AND PUSH1 0x40 MLOAD PUSH2 0x415 SWAP2 SWAP1 PUSH2 0x9EE JUMP JUMPDEST PUSH1 0x40 MLOAD DUP1 SWAP2 SUB SWAP1 LOG1 JUMP JUMPDEST PUSH0 DUP2 GT PUSH2 0x461 JUMPI PUSH1 0x40 MLOAD PUSH32 0x8C379A000000000000000000000000000000000000000000000000000000000 DUP2 MSTORE PUSH1 0x4 ADD PUSH2 0x458 SWAP1 PUSH2 0xA77 JUMP JUMPDEST PUSH1 0x40 MLOAD DUP1 SWAP2 SUB SWAP1 REVERT JUMPDEST DUP1 PUSH1 0x1 PUSH0 DUP3 DUP3 SLOAD PUSH2 0x472 SWAP2 SWAP1 PUSH2 0x960 JUMP JUMPDEST SWAP3 POP POP DUP2 SWAP1 SSTORE POP PUSH32 0x9580EF1BD2C88526F7C878185E323D2BEF5D3F0F9471577F3E3A2BFDB87763EF DUP2 PUSH1 0x1 SLOAD PUSH1 0x40 MLOAD PUSH2 0x4AC SWAP3 SWAP2 SWAP1 PUSH2 0xA95 JUMP JUMPDEST PUSH1 0x40 MLOAD DUP1 SWAP2 SUB SWAP1 LOG1 POP JUMP JUMPDEST DUP1 PUSH1 0x1 SLOAD LT ISZERO PUSH2 0x4FC JUMPI PUSH1 0x40 MLOAD PUSH32 0x8C379A000000000000000000000000000000000000000000000000000000000 DUP2 MSTORE PUSH1 0x4 ADD PUSH2 0x4F3 SWAP1 PUSH2 0xB06 JUMP JUMPDEST PUSH1 0x40 MLOAD DUP1 SWAP2 SUB SWAP1 REVERT JUMPDEST DUP1 PUSH1 0x1 PUSH0 DUP3 DUP3 SLOAD PUSH2 0x50D SWAP2 SWAP1 PUSH2 0x92D JUMP JUMPDEST SWAP3 POP POP DUP2 SWAP1 SSTORE POP PUSH32 0xA1FA8C9075FF27256CECB5D717B4A6D4955BB35D549C54B5824A02A008B251BF DUP2 PUSH1 0x1 SLOAD PUSH1 0x40 MLOAD PUSH2 0x547 SWAP3 SWAP2 SWAP1 PUSH2 0xA95 JUMP JUMPDEST PUSH1 0x40 MLOAD DUP1 SWAP2 SUB SWAP1 LOG1 POP JUMP JUMPDEST PUSH0 DUP1 SLOAD SWAP1 PUSH2 0x100 EXP SWAP1 DIV PUSH20 0xFFFFFFFFFFFFFFFFFFFFFFFFFFFFFFFFFFFFFFFF AND DUP2 JUMP JUMPDEST PUSH1 0x1 SLOAD DUP2 JUMP JUMPDEST PUSH0 DUP1 PUSH20 0xFFFFFFFFFFFFFFFFFFFFFFFFFFFFFFFFFFFFFFFF AND DUP3 PUSH20 0xFFFFFFFFFFFFFFFFFFFFFFFFFFFFFFFFFFFFFFFF AND EQ ISZERO SWAP1 POP SWAP2 SWAP1 POP JUMP JUMPDEST PUSH0 DUP2 SWAP1 POP SWAP2 SWAP1 POP JUMP JUMPDEST PUSH2 0x5C5 DUP2 PUSH2 0x5B3 JUMP JUMPDEST DUP3 MSTORE POP POP JUMP JUMPDEST PUSH0 PUSH1 0x20 DUP3 ADD SWAP1 POP PUSH2 0x5DE PUSH0 DUP4 ADD DUP5 PUSH2 0x5BC JUMP JUMPDEST SWAP3 SWAP2 POP POP JUMP JUMPDEST PUSH0 DUP1 REVERT JUMPDEST PUSH0 PUSH20 0xFFFFFFFFFFFFFFFFFFFFFFFFFFFFFFFFFFFFFFFF DUP3 AND SWAP1 POP SWAP2 SWAP1 POP JUMP JUMPDEST PUSH0 PUSH2 0x611 DUP3 PUSH2 0x5E8 JUMP JUMPDEST SWAP1 POP SWAP2 SWAP1 POP JUMP JUMPDEST PUSH2 0x621 DUP2 PUSH2 0x607 JUMP JUMPDEST DUP2 EQ PUSH2 0x62B JUMPI PUSH0 DUP1 REVERT JUMPDEST POP JUMP JUMPDEST PUSH0 DUP2 CALLDATALOAD SWAP1 POP PUSH2 0x63C DUP2 PUSH2 0x618 JUMP JUMPDEST SWAP3 SWAP2 POP POP JUMP JUMPDEST PUSH2 0x64B DUP2 PUSH2 0x5B3 JUMP JUMPDEST DUP2 EQ PUSH2 0x655 JUMPI PUSH0 DUP1 REVERT JUMPDEST POP JUMP JUMPDEST PUSH0 DUP2 CALLDATALOAD SWAP1 POP PUSH2 0x666 DUP2 PUSH2 0x642 JUMP JUMPDEST SWAP3 SWAP2 POP POP JUMP JUMPDEST PUSH0 DUP1 PUSH1 0x40 DUP4 DUP6 SUB SLT ISZERO PUSH2 0x682 JUMPI PUSH2 0x681 PUSH2 0x5E4 JUMP JUMPDEST JUMPDEST PUSH0 PUSH2 0x68F DUP6 DUP3 DUP7 ADD PUSH2 0x62E JUMP JUMPDEST SWAP3 POP POP PUSH1 0x20 PUSH2 0x6A0 DUP6 DUP3 DUP7 ADD PUSH2 0x658 JUMP JUMPDEST SWAP2 POP POP SWAP3 POP SWAP3 SWAP1 POP JUMP JUMPDEST PUSH0 PUSH1 0x20 DUP3 DUP5 SUB SLT ISZERO PUSH2 0x6BF JUMPI PUSH2 0x6BE PUSH2 0x5E4 JUMP JUMPDEST JUMPDEST PUSH0 PUSH2 0x6CC DUP5 DUP3 DUP6 ADD PUSH2 0x658 JUMP JUMPDEST SWAP2 POP POP SWAP3 SWAP2 POP POP JUMP JUMPDEST PUSH0 PUSH2 0x6DF DUP3 PUSH2 0x5E8 JUMP JUMPDEST SWAP1 POP SWAP2 SWAP1 POP JUMP JUMPDEST PUSH2 0x6EF DUP2 PUSH2 0x6D5 JUMP JUMPDEST DUP3 MSTORE POP POP JUMP JUMPDEST PUSH0 PUSH1 0x20 DUP3 ADD SWAP1 POP PUSH2 0x708 PUSH0 DUP4 ADD DUP5 PUSH2 0x6E6 JUMP JUMPDEST SWAP3 SWAP2 POP POP JUMP JUMPDEST PUSH0 PUSH1 0x20 DUP3 DUP5 SUB SLT ISZERO PUSH2 0x723 JUMPI PUSH2 0x722 PUSH2 0x5E4 JUMP JUMPDEST JUMPDEST PUSH0 PUSH2 0x730 DUP5 DUP3 DUP6 ADD PUSH2 0x62E JUMP JUMPDEST SWAP2 POP POP SWAP3 SWAP2 POP POP JUMP JUMPDEST PUSH0 DUP2 ISZERO ISZERO SWAP1 POP SWAP2 SWAP1 POP JUMP JUMPDEST PUSH2 0x74D DUP2 PUSH2 0x739 JUMP JUMPDEST DUP3 MSTORE POP POP JUMP JUMPDEST PUSH0 PUSH1 0x20 DUP3 ADD SWAP1 POP PUSH2 0x766 PUSH0 DUP4 ADD DUP5 PUSH2 0x744 JUMP JUMPDEST SWAP3 SWAP2 POP POP JUMP JUMPDEST PUSH0 DUP3 DUP3 MSTORE PUSH1 0x20 DUP3 ADD SWAP1 POP SWAP3 SWAP2 POP POP JUMP JUMPDEST PUSH32 0x526563697069656E7420616464726573732063616E6E6F74206265207A65726F PUSH0 DUP3 ADD MSTORE POP JUMP JUMPDEST PUSH0 PUSH2 0x7B0 PUSH1 0x20 DUP4 PUSH2 0x76C JUMP JUMPDEST SWAP2 POP PUSH2 0x7BB DUP3 PUSH2 0x77C JUMP JUMPDEST PUSH1 0x20 DUP3 ADD SWAP1 POP SWAP2 SWAP1 POP JUMP JUMPDEST PUSH0 PUSH1 0x20 DUP3 ADD SWAP1 POP DUP2 DUP2 SUB PUSH0 DUP4 ADD MSTORE PUSH2 0x7DD DUP2 PUSH2 0x7A4 JUMP JUMPDEST SWAP1 POP SWAP2 SWAP1 POP JUMP JUMPDEST PUSH32 0x5472616E73616374696F6E20616D6F756E74206D757374206265206772656174 PUSH0 DUP3 ADD MSTORE PUSH32 0x6572207468616E20300000000000000000000000000000000000000000000000 PUSH1 0x20 DUP3 ADD MSTORE POP JUMP JUMPDEST PUSH0 PUSH2 0x83E PUSH1 0x29 DUP4 PUSH2 0x76C JUMP JUMPDEST SWAP2 POP PUSH2 0x849 DUP3 PUSH2 0x7E4 JUMP JUMPDEST PUSH1 0x40 DUP3 ADD SWAP1 POP SWAP2 SWAP1 POP JUMP JUMPDEST PUSH0 PUSH1 0x20 DUP3 ADD SWAP1 POP DUP2 DUP2 SUB PUSH0 DUP4 ADD MSTORE PUSH2 0x86B DUP2 PUSH2 0x832 JUMP JUMPDEST SWAP1 POP SWAP2 SWAP1 POP JUMP JUMPDEST PUSH32 0x496E73756666696369656E742062616C616E636520666F722074686520747261 PUSH0 DUP3 ADD MSTORE PUSH32 0x6E73616374696F6E000000000000000000000000000000000000000000000000 PUSH1 0x20 DUP3 ADD MSTORE POP JUMP JUMPDEST PUSH0 PUSH2 0x8CC PUSH1 0x28 DUP4 PUSH2 0x76C JUMP JUMPDEST SWAP2 POP PUSH2 0x8D7 DUP3 PUSH2 0x872 JUMP JUMPDEST PUSH1 0x40 DUP3 ADD SWAP1 POP SWAP2 SWAP1 POP JUMP JUMPDEST PUSH0 PUSH1 0x20 DUP3 ADD SWAP1 POP DUP2 DUP2 SUB PUSH0 DUP4 ADD MSTORE PUSH2 0x8F9 DUP2 PUSH2 0x8C0 JUMP JUMPDEST SWAP1 POP SWAP2 SWAP1 POP JUMP JUMPDEST PUSH32 0x4E487B7100000000000000000000000000000000000000000000000000000000 PUSH0 MSTORE PUSH1 0x11 PUSH1 0x4 MSTORE PUSH1 0x24 PUSH0 REVERT JUMPDEST PUSH0 PUSH2 0x937 DUP3 PUSH2 0x5B3 JUMP JUMPDEST SWAP2 POP PUSH2 0x942 DUP4 PUSH2 0x5B3 JUMP JUMPDEST SWAP3 POP DUP3 DUP3 SUB SWAP1 POP DUP2 DUP2 GT ISZERO PUSH2 0x95A JUMPI PUSH2 0x959 PUSH2 0x900 JUMP JUMPDEST JUMPDEST SWAP3 SWAP2 POP POP JUMP JUMPDEST PUSH0 PUSH2 0x96A DUP3 PUSH2 0x5B3 JUMP JUMPDEST SWAP2 POP PUSH2 0x975 DUP4 PUSH2 0x5B3 JUMP JUMPDEST SWAP3 POP DUP3 DUP3 ADD SWAP1 POP DUP1 DUP3 GT ISZERO PUSH2 0x98D JUMPI PUSH2 0x98C PUSH2 0x900 JUMP JUMPDEST JUMPDEST SWAP3 SWAP2 POP POP JUMP JUMPDEST PUSH0 DUP2 SWAP1 POP SWAP2 SWAP1 POP JUMP JUMPDEST PUSH0 PUSH2 0x9B6 PUSH2 0x9B1 PUSH2 0x9AC DUP5 PUSH2 0x5E8 JUMP JUMPDEST PUSH2 0x993 JUMP JUMPDEST PUSH2 0x5E8 JUMP JUMPDEST SWAP1 POP SWAP2 SWAP1 POP JUMP JUMPDEST PUSH0 PUSH2 0x9C7 DUP3 PUSH2 0x99C JUMP JUMPDEST SWAP1 POP SWAP2 SWAP1 POP JUMP JUMPDEST PUSH0 PUSH2 0x9D8 DUP3 PUSH2 0x9BD JUMP JUMPDEST SWAP1 POP SWAP2 SWAP1 POP JUMP JUMPDEST PUSH2 0x9E8 DUP2 PUSH2 0x9CE JUMP JUMPDEST DUP3 MSTORE POP POP JUMP JUMPDEST PUSH0 PUSH1 0x20 DUP3 ADD SWAP1 POP PUSH2 0xA01 PUSH0 DUP4 ADD DUP5 PUSH2 0x9DF JUMP JUMPDEST SWAP3 SWAP2 POP POP JUMP JUMPDEST PUSH32 0x546F702D75702076616C7565206D757374206265206772656174657220746861 PUSH0 DUP3 ADD MSTORE PUSH32 0x6E20300000000000000000000000000000000000000000000000000000000000 PUSH1 0x20 DUP3 ADD MSTORE POP JUMP JUMPDEST PUSH0 PUSH2 0xA61 PUSH1 0x23 DUP4 PUSH2 0x76C JUMP JUMPDEST SWAP2 POP PUSH2 0xA6C DUP3 PUSH2 0xA07 JUMP JUMPDEST PUSH1 0x40 DUP3 ADD SWAP1 POP SWAP2 SWAP1 POP JUMP JUMPDEST PUSH0 PUSH1 0x20 DUP3 ADD SWAP1 POP DUP2 DUP2 SUB PUSH0 DUP4 ADD MSTORE PUSH2 0xA8E DUP2 PUSH2 0xA55 JUMP JUMPDEST SWAP1 POP SWAP2 SWAP1 POP JUMP JUMPDEST PUSH0 PUSH1 0x40 DUP3 ADD SWAP1 POP PUSH2 0xAA8 PUSH0 DUP4 ADD DUP6 PUSH2 0x5BC JUMP JUMPDEST PUSH2 0xAB5 PUSH1 0x20 DUP4 ADD DUP5 PUSH2 0x5BC JUMP JUMPDEST SWAP4 SWAP3 POP POP POP JUMP JUMPDEST PUSH32 0x496E73756666696369656E742062616C616E6365000000000000000000000000 PUSH0 DUP3 ADD MSTORE POP JUMP JUMPDEST PUSH0 PUSH2 0xAF0 PUSH1 0x14 DUP4 PUSH2 0x76C JUMP JUMPDEST SWAP2 POP PUSH2 0xAFB DUP3 PUSH2 0xABC JUMP JUMPDEST PUSH1 0x20 DUP3 ADD SWAP1 POP SWAP2 SWAP1 POP JUMP JUMPDEST PUSH0 PUSH1 0x20 DUP3 ADD SWAP1 POP DUP2 DUP2 SUB PUSH0 DUP4 ADD MSTORE PUSH2 0xB1D DUP2 PUSH2 0xAE4 JUMP JUMPDEST SWAP1 POP SWAP2 SWAP1 POP JUMP INVALID LOG2 PUSH5 0x6970667358 0x22 SLT KECCAK256 0xF7 SWAP8 EXTCODEHASH 0xE5 0xB5 OR SWAP5 PUSH8 0xA231D22E3E7BC760 0xB9 0xAD 0x2F PUSH5 0x60CE7351B0 0xF7 0x4C 0xE2 0xB6 0x2B PUSH28 0x564736F6C634300081A003300000000000000000000000000000000 "
				},
				"gasEstimates": {
					"creation": {
						"codeDepositCost": "581200",
						"executionCost": "infinite",
						"totalCost": "infinite"
					},
					"external": {
						"accessTransaction(address,uint256)": "infinite",
						"balance()": "2469",
						"cashOut(uint256)": "infinite",
						"displayAddress()": "infinite",
						"getBalance()": "2433",
						"topUp(uint256)": "infinite",
						"verifyAddress(address)": "734",
						"walletAddress()": "2527"
					}
				},
				"methodIdentifiers": {
					"accessTransaction(address,uint256)": "19363915",
					"balance()": "b69ef8a8",
					"cashOut(uint256)": "5c7b79f5",
					"displayAddress()": "4bc848e8",
					"getBalance()": "12065fe0",
					"topUp(uint256)": "50017f3e",
					"verifyAddress(address)": "fcb2cafc",
					"walletAddress()": "6ad5b3ea"
				}
			},
			"storageLayout": {
				"storage": [
					{
						"astId": 3,
						"contract": "contracts/Frontend.sol:Frontend",
						"label": "walletAddress",
						"offset": 0,
						"slot": "0",
						"type": "t_address_payable"
					},
					{
						"astId": 5,
						"contract": "contracts/Frontend.sol:Frontend",
						"label": "balance",
						"offset": 0,
						"slot": "1",
						"type": "t_uint256"
					},
					{
						"astId": 57,
						"contract": "contracts/Frontend.sol:Frontend",
						"label": "balances",
						"offset": 0,
						"slot": "2",
						"type": "t_mapping(t_address,t_uint256)"
					},
					{
						"astId": 62,
						"contract": "contracts/Frontend.sol:Frontend",
						"label": "transactionHistory",
						"offset": 0,
						"slot": "3",
						"type": "t_mapping(t_address,t_array(t_uint256)dyn_storage)"
					}
				],
				"types": {
					"t_address": {
						"encoding": "inplace",
						"label": "address",
						"numberOfBytes": "20"
					},
					"t_address_payable": {
						"encoding": "inplace",
						"label": "address payable",
						"numberOfBytes": "20"
					},
					"t_array(t_uint256)dyn_storage": {
						"base": "t_uint256",
						"encoding": "dynamic_array",
						"label": "uint256[]",
						"numberOfBytes": "32"
					},
					"t_mapping(t_address,t_array(t_uint256)dyn_storage)": {
						"encoding": "mapping",
						"key": "t_address",
						"label": "mapping(address => uint256[])",
						"numberOfBytes": "32",
						"value": "t_array(t_uint256)dyn_storage"
					},
					"t_mapping(t_address,t_uint256)": {
						"encoding": "mapping",
						"key": "t_address",
						"label": "mapping(address => uint256)",
						"numberOfBytes": "32",
						"value": "t_uint256"
					},
					"t_uint256": {
						"encoding": "inplace",
						"label": "uint256",
						"numberOfBytes": "32"
					}
				}
			},
			"userdoc": {
				"kind": "user",
				"methods": {},
				"version": 1
			}
		}
	}
}